:100000000067002099220000A3AE000085220000B6
:1000100085220000852200008522000000000000EB
:100020000000000000000000000000003D2400006F
:100030008522000000000000A123000085220000AE
:10004000DD260000DD260000DD260000DD260000A4
:10005000DD260000DD260000DD260000DD26000094
:10006000DD260000DD260000DD260000DD26000084
:10007000DD260000DD260000DD260000DD26000074
:10008000DD260000DD260000DD260000DD26000064
:10009000DD260000DD260000DD260000DD26000054
:1000A000DD260000DD260000DD260000DD26000044
:1000B000DD260000DD260000DD260000DD26000034
:1000C000DD260000DD260000DD260000DD26000024
:1000D000DD260000DD260000DD260000DD26000014
:1000E000DD260000DD260000DD260000DD26000004
:1000F000DD260000DD260000DD260000DD260000F4
:1001000030B5374B374AC3F800263748C3F80426C2
:1001100087B0C3F808264921C3F80C26C3F8102677
:10012000C3F81426C3F81826C3F81C260AF023FDCA
:1001300009F098FD03A800F00BFD2C4B1B688342CF
:1001400004D02B4845210AF016FDFEE7059A294800
:1001500049210AF010FD039927484B7D0A7DC98A81
:10016000009149210AF007FD244849210AF003FDC6
:100170004FF4604100200BF0DDFA20B1204845210A
:100180000AF0F9FCFEE79DF8100002A900F03EF825
:10019000044608B10AF0C3FE029A059B194D1344A8
:1001A000039A128913442B6005F01CFA01F076FAC9
:1001B00001F044F801F018F802F098F82B681B6879
:1001C00083F3088884F31488BFF36F8FBFF36F8FB6
:1001D0002B685B6898470C4845210AF0CCFCFEE789
:1001E000000001403546526EDCC900007C0800204A
:1001F000F5C9000018CA000047CA000065CA00001F
:100200008ACA000078080020BDCA000008B502466E
:1002100038B10548002345210AF0ADFC6FF0150008
:1002200008BD0860FCE700BFE0CA000021B1012959
:1002300006D06FF015007047044B53F8300070473C
:10024000024B03EBC0035868704700BFB8C50000FD
:100250002DE9F04F9B46DBB0854B0290DDE96579D7
:100260001E6815460C4600F089FF824B0122C3F838
:1002700000253AA808F0CEFA3FB1B9F1000F04DD2D
:100280004A4639463AA80AF044F823896289D4F8E4
:100290000CA013449A444FF00008C24569D80DA938
:1002A0003AA808F029FB734B0022C3F80025C3F8D5
:1002B0000025679B5BB10DAF0DF1540C3A4603CAA4
:1002C000624518605960174603F10803F6D1002310
:1002D00000932A464FF6FF73214607A809F0C3FC96
:1002E0000746002856D102980C9C294609F0E5FDE6
:1002F000A0424FD3DFF888B1DFF878A14FF0FF3488
:100300000DF1160305AA06A907A809F0FAFC0028B2
:1003100040DB40F0A780069907A809F03EFD50B9E0
:10032000BDF81600544A4FF6FF7132F8023B8B427B
:1003300030D09842F9D1BDF81690B9F1100F33D0F2
:10034000B9F1220F71D0B9F1010FD9D1BDF8143034
:10035000202B1FD806993AAA28460AF027FC044603
:10036000C0B99DF814300293202B34D94FF0FF34DC
:10037000C6E7649BAAEB0809994528BF99464B46F6
:100380005A46414628460AF011FC30B1394B00224A
:10039000C3F80025364B1E6866E04A4659463AA81F
:1003A00009F0B7FFC84478E7BDF81470202FF1D1E9
:1003B00006993B463AAA28460AF0F8FB0028E9D1FC
:1003C0003A463AA90DA809F029FDDBF8003083422E
:1003D000E0D1012794E7294ADFF8A8801368039346
:1003E000039B9C42C2DA00F0C9FECAF800951DA822
:1003F00008F010FAD8F8042058F8081B12681DA855
:1004000009F087FF15A91DA808F076FA0022CAF89E
:100410000025CAF80025029A3AA915A80BF07CFE1F
:1004200000283FF46DAF0134DAE7631C3FF468AF96
:10043000124B1B689C4299DABDF81430802BA9D866
:1004400006993AAA28460AF0B1FB0028A2D1E4B2E4
:10045000BDF8143000943AAA20210DA800F014F839
:10046000064683E7002F95D030465BB0BDE8F08F9D
:10047000B400002000A0025098C90000C0C50000D0
:100480007C080020C4C500002DE9F04796B017464F
:100490001E469DF878203A4BDFF8F48053F832106E
:1004A000019103EBC20381465B68D8F800501868DD
:1004B00002AA0144302301A809F0B9FE002858D14E
:1004C000DDE901431C4403AA06AB214601A809F05B
:1004D000D6FE00284DD1049A072A4AD12949059809
:1004E0000BF01AFE002844D1079A082A41D1264968
:1004F00008980BF011FE00283BD102AA214601A862
:1005000009F0A9FEA8BBDDE901A30AEB03029442AE
:100510002FD1412B2DD13E44302303AA314602A8CE
:10052000029709F084FE194DE0B9DDE90232134467
:100530009E4217D3324602A906A809F03CFC88B9AE
:10054000324602A90EA809F036FC58B99AF80030D4
:10055000042B07D1202306AA0AF10101484600F026
:1005600025FE50B1D8F800302D68AB4218BFD8F83E
:100570000050284616B0BDE8F0872B68F4E700BFAE
:10058000C4C500000FCB000006CB00007C08002093
:10059000B4000020094A0B78400052F820108B422A
:1005A00009D0013052F82000834214BF4FF0FF30D1
:1005B0004FF4C07070474FF4C0707047CCC5000056
:1005C0001FB5582303FB01006A46046AA168102383
:1005D000103920460AF0EAFA034628B12278044886
:1005E00045210AF0C8FA0024204604B010BD00BF1F
:1005F00017CB00002DE9F3471E4683688B42054662
:100600000C46174643D95B1A934240D386B36A46D9
:1006100009F00DFB00283CDB013FDDF800803C4485
:100620001D4FDFF878906A462146284609F0FFFA08
:1006300000282EDBDDE9004A2846524621460AF012
:10064000DFFA002825DBC7F80096C7F80496C7F83C
:100650000896C7F80C96C7F81096C7F81496C7F80E
:100660001896C7F81C966EB1444512D9013CDAE7DA
:10067000511E21446A4609F0DAFA002809DBDDF848
:100680000080CDE75444A04503D30134CBE74FF0BD
:10069000FF3002B0BDE8F087000001403546526EE1
:1006A00073B50D46044600212846CDE9001109F036
:1006B0008BFC58B323681F4EB34206D101AA2046D3
:1006C00009F0FDFB08B10AF02AFCE36AB34206D147
:1006D0006A460121204609F0F2FB0028F3D1DDE94A
:1006E0000032934288BF0193019BAB60019A294677
:1006F000204600F031FC104B1A68002A03DD0F4839
:1007000057210AF038FA002002B070BD0146204699
:10071000FFF756FF06460028D5D005F1080109F07D
:10072000AFFB0028CFD1AB68019330460AF03DFA09
:10073000DCE700BF3DB8F396E014002043CB000097
:100740002DE9FF412C2707FB010704463D6A0E46B1
:1007500090460DB90AF0E3FB28460AF06DFA7B1EBD
:10076000FA1C13F8011F814223D19342F9D1CEB173
:100770002946204609F06CFC98F80730042B0CD170
:10078000216A0029E6D0204609F062FC024648B9F9
:10079000244849210AF0EFF904E0002004F0D0FFDA
:1007A0000428EDD0204B186804B0BDE8F0811F4A42
:1007B00035E02C23734304EB030CDCF81010CA065D
:1007C000D5D41B4A1068E2581A4B9A421CD1DCF867
:1007D0000C20BCF808309B1816D2BCF80A20D2189E
:1007E00012D2AB689A420FD240F60C630B400BD189
:1007F000CDE9023301934FF4807300932A460E4BE8
:1008000039462046FFF724FD0C4B1B688342CBD0B2
:10081000002ECCD00121284609F015FC084A0948D1
:100820004521B7E784CB0000B000002072CB000068
:10083000B40000203DB8F3960C2A00207C0800206C
:100840007ACB0000C3CB00002DE9F84FDFF878B079
:100850001B4C1C4D884691469A4600260B9B9E4297
:1008600001D300200FE00B9B174A9F1BB7F5806F49
:1008700028BF4FF480673B4606EB0A0140460AF06A
:1008800095F910B10120BDE8F88F0A993B465A4608
:10089000711848460AF09FF90028F3D1C4F80056B1
:1008A0003E44C4F80456C4F80856C4F80C56C4F8BC
:1008B0001056C4F81456C4F81856C4F81C56CDE7A0
:1008C000000001403546526E80080020F0B5984B7C
:1008D00043620E4603F58063002187B0044603653A
:1008E0000846FFF7A3FC04F12001C0B200F080FE2F
:1008F000002840F08A800121FFF798FC04F14C01A8
:10090000C0B200F075FE00287FD1204609F032FB0E
:10091000054678B900221146204609F015FB054628
:1009200010B38448002257210AF025F9012384F8E6
:10093000583009E08048802257210AF01CF9012331
:100940009D4284F85830E5D194F858308DF80F3036
:10095000042B00F28E80012B00F2938000F0A9801E
:10096000FF2384F85830A4E0204600F0F3F9002873
:10097000DCD002A809F01FFB0146204609F0A6FBC7
:1009800018B16E482A465721CEE702A809F01CFB91
:1009900080F0010102AAC9B2204609F0D5FA024648
:1009A0000028BED102A809F00FFBC0BB02A9204657
:1009B000FFF776FE48BB9DF80F3084F85830DA1EFA
:1009C000012A19D800F0E8F89DF80F3028B9023B49
:1009D000022B08D994F8583011E0023BFF22022B79
:1009E00084F858200DD8002000F0C0F80028F1D07D
:1009F000FF2384F8583004E09A1E022AF3D9FF2B13
:100A000005D14F4845210AF0B6F80AF088FA0022CD
:100A10001146204609F098FA002887D0F5E79DF89E
:100A20000F70012F18D1104604F08AFE831E022B8E
:100A300005460ED802AA39462046FFF781FE414BF3
:100A40001B68984205D0404B1D68A84214BF05257D
:100A5000012584F8585077E7012102AA2046FFF7C4
:100A60006FFE384B1B6898420CBF9DF80F30052372
:100A70005DE7052B7FF474AF002000F08DF8C0B166
:100A80006EE702A92046FFF70BFE0028BDD194F8BF
:100A90005830DA1E012A0AD800F07EF818B9002072
:100AA00000F064F828B1FF2384F85830ADE7022B3A
:100AB000F5D094F85830FF2BA3D00022012B234D02
:100AC000019213D01146204609F03EFA70B12D680C
:100AD0001022002102A80BF017FBE06C0AF065F869
:100AE000206A0AF062F8284607B0F0BD00221146DD
:100AF0002046FFF725FE134F3B689842E7D12B684D
:100B00009842E4D0104B1B689842E0D0019B01331F
:100B10000193019B012B00D0FEE7206A09F085F8C4
:100B20003071236A5B6834603D68B360D0E700BF12
:100B3000800C00202DCC0000EBCB000059CC000035
:100B400083CC00007C080020B0000020B40000200E
:100B5000054B10B560220446002118460BF0D4FA6C
:100B60002146FFF7B3FE10BD8014002013B5094BDA
:100B700001A913F8300000F03BFD48B901980AF0D4
:100B800097FE044601980AF010F8204602B010BD06
:100B90000124FAE7D4C500001FB50F4B01A913F8D3
:100BA000300000F025FDA8B9019802A904F072FDFB
:100BB000044668B99DF80B30032B03D101980AF065
:100BC0003FFE0446019809F0F0FF204604B010BD36
:100BD0000124F7E70124F8E7D4C500002DE9F3412B
:100BE00006460C4617461D460BB9002121E0184663
:100BF00009F0EAF901460028F7D13046FFF7E0FC9A
:100C000018B9012002B0BDE8F08101A909F038F956
:100C10000028F6D10199304609F08AFA736A5968BA
:100C20006B79012B0CD1002CDFD12B68834298BF4C
:100C300000212C2303FB0466306AB0B90AF06FF977
:100C4000022BD2D12B68012B05D98342CDD8B4FA1F
:100C500084F46409C9E7C8D1002CEAD0012CC4D1BE
:100C60002C79023C18BF0124BFE720233A4609F043
:100C70009DFF0028C5D1002DC4D03868024BC01A92
:100C800018BF4FF0FF30BDE73DB8F3962DE9F04FA8
:100C9000074685B00C46014600201646FFF77AFC51
:100CA000051E50DB3846E46D09F0DBF85FFA84F985
:100CB0006B1E09FB03084FF0000A4FF0010B4FF0C9
:100CC000FF349DB9BAF1010F03DD2148452109F038
:100CD00052FF631C06D07F2C2ADC013440F2011342
:100CE0003460B380284605B0BDE8F08F6B1E0093DA
:100CF0000DF10F0201234146384609F057FF031E4C
:100D0000019322DB01220DF10F0138460AF034FD78
:100D1000019B40B15B4501D00AF1010A009DA8EB9F
:100D200009089B46CDE7B4F1FF3F08BF2C46F5E725
:100D30000223803C7371631004F001040133013419
:100D400033603471CEE70725CCE70125CAE700BF41
:100D50008FCC0000F8B5866A456DAE42044608D0D7
:100D60006B1CB34205D01748572109F004FF00203F
:100D7000F8BD802E19D914485721F6E7626A02EBB4
:100D8000C3025768226D02EBC3025268BA4202D016
:100D90000E485721E9E701339D42EFD1204609F083
:100DA000D3FA28B90A485721DFE700231F46F3E7A3
:100DB000AE4205D9636A03EBC5035B68BB42E7D16A
:100DC0000120D5E7B2CC0000EACC000019CD00002C
:100DD00045CD000010B588B0044604A9006A04F0AF
:100DE00059FC08B10AF09BF89DF81020012A44D064
:100DF000264B2749032A08BF0B469DF81320029271
:100E00009DF8122001929DF811202248009249215C
:100E1000214A09F0B0FEE06C06A904F03BFC044650
:100E20000028DFD19DF81820012A28D0174B184937
:100E3000032A08BF0B469DF81B2002929DF81A203A
:100E400001929DF8192000921248144A492109F094
:100E500092FE9DF81030012B13D19DF81230032B18
:100E60000FD19DF81830012B0BD00D48492109F006
:100E700082FE0224204608B010BD0A4BBDE7094B94
:100E8000D9E70948492109F076FEF3E77ECD000055
:100E900087CD00009BCD00008DCD0000DCCD000093
:100EA000ECCD000082CD00000BCE000070B54B6889
:100EB0001446234A03F0FF23934286B006460D46AC
:100EC0003AD10B68012B37D104A9204604F0E2FB8C
:100ED00008B10AF024F89DF81020012A2ED0194BF1
:100EE0001949032A08BF0B469DF8132002929DF86A
:100EF000122001929DF8112000921448144A4921B1
:100F000009F039FE9DF81030032B15D121463046EB
:100F100009F09EF80028DCD120460AF091FC002858
:100F2000D7D1A968204608F0B9FF0028D1D12046C2
:100F300004F08EFB0028CCD106B070BD054BD3E782
:100F4000000100047ECD000087CD00009BCD000095
:100F5000DCCD000082CD00002DE9F04F164687B0B1
:100F600005460C467C48492109F005FE31462846D5
:100F700009F0DEF86B6A804620465E6809F024F8C6
:100F8000E8B1E86D08F04CFFAF6A0023013F33443D
:100F9000984201D9013FFAE7B84510D36F4857216D
:100FA00009F0E9FD07FB06F36D4808FB06625721CF
:100FB00009F0E1FD0123E37107B0BDE8F08F2F6A6E
:100FC0000FB909F0ACFFEB6C0393002BF9D01A4674
:100FD00021462846FFF76AFF6379012B54D1DFF8D9
:100FE00084B1C1464BE02268C2F1010343449945F4
:100FF00043D86B6A196853F8390003EBC903012A17
:1010000053F8083CA3EB0103A0EB010A049315D1AC
:10101000E368022B0CD03946284609F019F800285D
:10102000CFD122463946284609F027F80028C8D1F2
:101030000399284609F00CF80028C2D10023324653
:1010400051463846FFF7D6FA0028BAD1CDE900A6B6
:10105000049B3A4639462846FFF7F6FB0028B0D1F4
:101060002146284608F0BDFF23680133236020B1E4
:10107000DBF800300133CBF8003009F1FF39B9F16A
:10108000000FB0D101232360022363714FF00109E7
:10109000C84591D3236899455AD36A6A4FEAC90370
:1010A000083B52F83910D2F800B00491D1582A6D9B
:1010B000D0581368A0EB030A2379012B46D1A1EB8A
:1010C0000B010023324638460591FFF793FA0028BA
:1010D0007FF477AF059900910196039953463A46FC
:1010E0002846FFF7B1FB00287FF46BAF2146284666
:1010F00008F077FF0223237118B11A4A13680133ED
:1011000013600398002332465146FFF773FA002814
:101110007FF457AF049B039ACDE900A6A3EB0B0322
:1011200039462846FFF790FB00287FF44AAF214656
:10113000284608F056FF23680133236001232371FA
:1011400030B1084A13680133136001E0022BD8D094
:1011500009F101099CE700BF22CE00004BCE000040
:101160007ACE0000E01400200A4619B1024B00219B
:101170001B681847704700BFB800002070B5094DC4
:101180002B780BB1002070BD074C0126C4F8006518
:1011900007F0E2FB18B92E70C4F80005F2E74FF033
:1011A000FF30F0E70C2B002000A002502DE9F041A9
:1011B000DFF83080ACB01F4606460C461546FFF7F8
:1011C000DDFF0123C8F800352A4633460097214643
:1011D00003A80AF045FF0023C8F800352CB0BDE88D
:1011E000F08100BF00A00250BFF36F8F72B6124BA8
:1011F0004FF0FF32C3F88020C3F88420C3F8882062
:10120000C3F88C20C3F89020C3F89420C3F898202A
:10121000C3F89C20C3F88021C3F88421C3F8882137
:10122000C3F88C21C3F89021C3F89421C3F8982106
:10123000C3F89C21704700BF00E100E03E4A2DE961
:10124000F0434FF0FF3301215160C2F84833C2F838
:10125000083302F5C042394E5160C2F84833C2F833
:10126000083302F59832364FDFF8DC80516085B0E4
:10127000C2F848330025C2F8083356F8044B4FF043
:10128000FF3944F30730C4F8089301F0F7F801235D
:1012900063600023C4F84C31D4F84C21C4F81031F9
:1012A000D4F81021C4F84431D4F84421C4F80035EE
:1012B000D4F80C250092D4F814250192D4F808250E
:1012C0000292D4F810250392C4F80C956846C4F82D
:1012D0001495C4F80895C4F8109550F8042B511CC7
:1012E0000FD002F01F0152091DD0012A1ED1424623
:1012F00002EB8102D2F80017394041F00201C2F836
:1013000000170133042BE8D15DB10E4A4FF0FF33D3
:10131000C2F808354FF08042C2F8083305B0BDE886
:10132000F0830125A9E74FF0A042E1E701F5E07164
:10133000002353F82130FFDE00B00040E0C500007C
:10134000F0F8FCFF00F0014000030050014B1B6867
:10135000184700BFBC000020014B1860704700BF59
:10136000BC00002030B585B004460D461022002197
:1013700068460AF0C9FE02238DF802302A46044B63
:1013800001932146684608F005FB05B030BD00BF5B
:101390004D13000080B505460E461746984606F0E8
:1013A00029FC03460AF0E2FEDFF81890044649F8EB
:1013B0000030424630463946A84754F8090000F04C
:1013C000D9FF00BF080000002DE9F047058B044657
:1013D0002807904611D4022905F0070540F0CC807B
:1013E000204609F01FFA78B10138218B042811D862
:1013F000DFE800F0C2106D85950001290CBF45F0B3
:10140000100545F02005258388F31188BFF36F8F01
:10141000BDE8F08701F0070AAA4500F0A580002783
:10142000B9463E46A368002B00F0BC8041F008019D
:10143000218388F31188BFF36F8FA168002900F022
:10144000BA800D68002900F0B680D1F804803346D8
:1014500052462046C047002D76D02B6829461D46AF
:10146000F0E701F007035A1F012A1BD8002221F0E0
:101470000701062B276889B2C4E9002209D13B463F
:1014800003E0628B013262831B68002BF9D141F0CB
:1014900002012183204609F0C5F900287AD041F0E5
:1014A000200176E0042B0AD121F0070189B22183C3
:1014B000204609F0B7F910B141F020012183218BBA
:1014C00001F0070AAA454FD00027B946AAE72369C9
:1014D00021F0070141F00601062DD3F80090218389
:1014E0002DD1B9F1000F3FD041F00801218388F3DD
:1014F0001188BFF36F8F3A492046C84729E021F091
:101500000701236941F0040189B2042DD3F8049046
:101510002183E6D000273E464FF0040A82E721F0FF
:101520000701236941F0050189B2052DD3F8089020
:101530002183D6D000273E464FF0050A72E70027E8
:101540003E464FF0060A6DE72B4687E7B9F1000FDC
:10155000D1D1EFF31188202383F31288BFF36F8F6B
:10156000238B23F008032383258BEA062ED525F051
:101570001003238305F007056669218B002EBFF653
:1015800070AF00232768C4E9003321F0070141F060
:1015900001012183218B01F0070AAA454FF00009C0
:1015A0007FF440AF002F9CD041F00801218388F3E5
:1015B0001188BFF36F8F002FC8D03D68394633467E
:1015C0005246204609F05AF92F46F4E7AB067FF55C
:1015D0001BAF25F02003238305F0070500E700BFBC
:1015E000A9A80000014B036000207047E8C5000077
:1015F00070B5104B1C680D46B4B10F4B1968002331
:101600008B4202DB6FF0010070BD224612F8106BB6
:10161000864202D001331446F2E7E0680AF01FFA6E
:1016200028B12C600020EFE76FF00C00ECE76FF0C2
:101630001200E9E700010020E8C5000010B588B0FD
:10164000436802938368C068CDE903320A680023C7
:10165000CDE906230C4601AA0449059309F06CFD67
:10166000079808B9059B236008B010BD47AC00007F
:1016700010B5044609F072FC10F1780F00D050B993
:10168000054A204609F01AFBD2F8C43023EA0003C9
:10169000C2F8C430002010BDE414002070B5164D0F
:1016A00095F8B830FBB101F043FD002822DB00F0D3
:1016B00059F90024D5F8C430E340DA07E6B214D46F
:1016C000D5F8C43004F11002D340DB0705D546F04D
:1016D0008000FFF7CDFF00280CDB0134102CE9D18E
:1016E000002385F8B830002004E03046FFF7C0FF43
:1016F0000028E5DA70BD00BFE414002010B5094BE6
:1017000000211A461C78844204D15C6814B102EBB3
:10171000811010BD0131042903F14003F2D10020F2
:10172000F7E700BFB01500202DE9F34150F8283C41
:1017300010F82C6C103304460AD1036950F8202CA1
:10174000980736D5D2B9590715D5002344F8283C57
:1017500054F8283C10330BD054E9077554F8148C16
:101760000AF026FB00284FD02E4821460AF004FB41
:1017700002B0BDE8F08143F00403236154F8241C57
:1017800001AB304609F0A8FA10B16FF01503DDE7A0
:10179000019A54F8243C134444F8243C54F8203C67
:1017A0009B1A44F8203C54F81C3C134444F81C3C5D
:1017B000CEE754F8241C01AB304601F055FD00285B
:1017C000E3D1019D54F8243C2B4444F8243C54F8C4
:1017D000203C5B1B44F8203C54F81C3C2B4444F850
:1017E0001C3C002DB1D0304601F0C8FDB5FBF0F334
:1017F00003FB1055002DA8D154F8203C002BA4D099
:10180000304601F079FDA3E744F8180CA4F110006C
:1018100005F01EFD002DABD0424639463046A847A4
:10182000A6E700BF580300204B1E012B73B50646E8
:101830000D460FD8FFF762FF044668B9012D09D1A4
:1018400001AB01220DF10301304601F00DFD019BBA
:10185000002BF5D102B070BD0AF0AAFA04F12C01F8
:1018600008B1012D05D1084602B0BDE87040FFF770
:101870005BBF034802B0BDE870400AF07DBA00BF0C
:10188000580300202DE9F74F06460191154698466A
:1018900009F06AFA044600285BD1EFF3118A20238D
:1018A00083F31288BFF36F8FDFF8B0B000220023FC
:1018B000584605F001FD70B9DFF8A490A70109EBC7
:1018C0008414636813F1100F14D10193584605F086
:1018D000BFFC019B06E00134042C0BF1400BE5D169
:1018E0006FF00B038AF31188BFF36F8F184603B0B4
:1018F000BDE8F08F019B2061C4E902350C9B636158
:101900000D9BA36130466FF00F0309F80760C4F820
:101910003C80636001F032FD58B1304601F02EFD8D
:10192000B5FBF0F303FB10551DB1E36B43F004036B
:10193000E36318F0020F07D007F12C010648494471
:101940000AF01AFA0023CDE7304601F0D5FC034631
:10195000C8E76FF00F03C9E758030020CC1500203B
:10196000B0150020F8B50E4C04252027EFF31186A2
:1019700087F31288BFF36F8F6368103307D16FF05E
:101980008B030848636004F12C010AF0F5F986F333
:101990001188BFF36F8F013D04F14004E6D1F8BD1B
:1019A000B0150020580300200169012381F84B3055
:1019B0000B6833B191F849301BB1024808310AF085
:1019C000DBB97047580300200169012381F84A30D0
:1019D0000B6833B191F848301BB1024808310AF066
:1019E000CBB970475803002070B50569EFF3118635
:1019F000202383F31288BFF36F8FD5F8900009F08E
:101A000077F8044686F31188BFF36F8F30B104482E
:101A10000022002305F1180105F0B6FD204670BD37
:101A20005803002070B5012382F8483013680D4632
:101A300014463BB192F84A3023B10E4802F1080136
:101A40000AF09AF9D4F89030DA885B899A4205D185
:101A50007DB904F1180140F6CD4204E004F118010B
:101A6000002DF8D00022BDE870400248002305F0A8
:101A70008BBD70BD5803002070B50E4681880446AA
:101A8000C9B21548154609F04BF910B394F9002076
:101A90006378002A16DB202B04D0222B0ED06FF0A7
:101AA00085000AE02B681A6840F8102C9A8820F804
:101AB0000C2C9B7900F80A3C002070BD638800F86C
:101AC000093CF9E7212BEAD110380723286033605D
:101AD000F2E76FF01200F0E7B016002008B50146FB
:101AE000034809F02BF910B1012300F8073C08BDA9
:101AF000B01600200D4A03460021A0F848101068D7
:101B0000C3F8940090889279A3F8980083F89A20FB
:101B100083F89C1083F89B10A3F89E1083F8A01004
:101B2000402203F14C000AF0EFBA00BFA0C500004C
:101B300010B504690023C4F8A8300C4BC4F8A40005
:101B4000596804F1A80269B9C3E9002204F1080048
:101B500007490AF0F5F804F1180006490AF01CF9E3
:101B6000002010BD0A605A60F0E700BFB0160020E8
:101B700093AD0000E91B000073B504698DF80710F0
:101B8000002384F848302025EFF3118685F312886E
:101B9000BFF36F8F0122D4F890000DF1070108F018
:101BA000A7FF86F31188BFF36F8F01280AD00AF0D0
:101BB000FFF810B994F8A1306BB9094B1A780AB93B
:101BC00001221A702122002304F11801054805F0B2
:101BD000DBFC02B070BD002121200AF089F9D3E7B7
:101BE0000D2B002058030020F0B5D0F88C305B6836
:101BF0001B6A1F7D85B00546384609F0B5F80646D4
:101C000050BB95F886303BB3A86F0146C38831F8C6
:101C10000A2F9B1A9BB2B3F5806F28BF4FF48063E5
:101C200003AA08F016FF0446B0B18306A5F1180315
:101C300008BF00F1FF3485F830600193074B03992A
:101C40000093224602233846FFF71CFEA86F224667
:101C500000F10A0108F033FF05B0F0BD251A0000BD
:101C600037B514460A1E054621DDD4F88C0004F170
:101C70004C0108F03DFF012384F8493023683BB153
:101C800094F84B3023B1114804F108010AF074F8BC
:101C9000D4F88C209388918912695B1A9BB2D31A6D
:101CA0003F2B04D8012384F8A03003B030BD94F852
:101CB0009E30002BF9D0064B009301940123402263
:101CC00004F14C012846FFF7DDFDEEE75803002044
:101CD000611C0000F7B50D4601461D4809F014F8D7
:101CE000044610B30646691E56F8A4395F680529F4
:101CF0001BD8DFE801F01C1A031C222610F8061C72
:101D000099B9012300F8063C3B6A3246187BFFF77D
:101D1000A7FF14F85C2C42B93B6A187D0D4B009369
:101D2000019602231146FFF7ADFD03B0F0BD30462A
:101D300003B0BDE8F040FFF7DDBE012304F8053C29
:101D4000F3E710F8053C002BEFD00023F6E700BFC7
:101D5000B0160020251A000037B5094D09490024A6
:101D600000944FF0FF334FF48062284605F0CCFB1F
:101D7000054928460AF022F8204603B030BD00BFCE
:101D800058030020802B002019CF000008B505481B
:101D900008F020FD044808F01DFDBDE80840034898
:101DA00008F018BD22CF000053CF000086CF0000FE
:101DB000014806F04BBA00BF8CC6000038B5044697
:101DC00018B90F4B0F485B6898476168B1F5683FD9
:101DD00010D0B1F5680F0DD00B4DA9420AD011F407
:101DE0006861206807D00146084809F091FE002389
:101DF0002360656038BD14220AF086F9F9E700BF58
:101E000094010020B4CF00002C5F5CA9B81B002017
:101E100008B520B34368B3F5683F10D101220368C9
:101E2000BFF35B8F53E8001F002903D143E8002074
:101E30000028F7D1BFF35B8F0DD1002008BD094A00
:101E400093420AD000684FF0FF324FF0FF3305F0A5
:101E500005F90028F1D00448F0E70448EEE76FF4F4
:101E6000E040EBE72C5F5CA9E98FFFFFEA8FFFFF03
:101E700008B5D8B14368B3F5683F10D100220368B4
:101E8000BFF35B8F53E8001F012903D143E8002013
:101E90000028F7D1BFF35B8F0BD1002008BD074AA4
:101EA000934208D0006805F051F9F6E76FF4E0407E
:101EB000F4E70348F2E70348F0E700BF2C5F5CA9B2
:101EC000E98FFFFFEA8FFFFF10B5044618B91D4BDD
:101ED0001D485B6898476368B3F5683F2FD0B3F53A
:101EE000680F2CD0194A934219D1236803BB1848B4
:101EF0004FF0FF324FF0FF33214605F081F808B96B
:101F000023681BB90F4B13485B689847206814225D
:101F100000210AF0F9F84FF46863636008E0B3F554
:101F2000683F0DD83A2B03D040F6BA629342DED117
:101F3000206809F037FE636843F03A03636010BD20
:101F4000054AF3E794010020B4CF00002C5F5CA9A0
:101F5000B81B0020DACF00003A00003A08B5064965
:101F600006484023142209F0C5FDBDE80840044995
:101F7000044806F0DDB900BFB8160020B81B0020E9
:101F800094C60000A8C6000030BFFFF7FDBF00BF29
:101F90002DE9F0410B4EDFF8348006EB0807CC1B2F
:101FA00005463246084920460AF086F8A0194246FE
:101FB0000021083C0AF0A8F82C6707F10800BDE8EA
:101FC000F08100BF0000000060C5000004000000B8
:101FD000054B9A699B689A421FBF044A536843F0B5
:101FE00080535360704700BFFC27002000ED00E0E5
:101FF00070B5264B15469A6A12F0100F9A6A14BFF4
:102000001124102412F0080F9A6A18BF12249207A4
:1020100006460AD5586B9A6A140634D519B19A6ADD
:1020200022F080029A62132401E06FF01500174B32
:102030009A6A12F0010F9A6A18BF142412F0200F46
:102040009A6A18BF1524D20602D49B6A9B070AD548
:102050000E4B5B68190506D5314600F0C7FA10B182
:1020600080F309880224094B9A6A920642BF5A6A91
:1020700022F400525A629A6A42F0FF029A620023E6
:102080002B70204670BD6FF01500CCE700ED00E02E
:10209000134B9A6A12F0007F9A6A14BF1E201D200B
:1020A00012F0807F9A6A18BF1F2012F4002F9A6ADC
:1020B00018BF212012F4802F9A6A18BF222012F430
:1020C000003F9A6A18BF232012F4803F9A6A6FEA91
:1020D00002426FEA12429A6218BF2420704700BF82
:1020E00000ED00E010B5194B0246986A9C6A10F4A6
:1020F000805F14BF1720162014F4006F9C6A18BF6D
:102100001820A40509D5986B986A000404D51AB163
:102110009A6A22F400429A6219200C4B9A6A12F4CD
:10212000806F9A6A18BF1A20D2050CD49B6A13F4E8
:10213000005F18BF1C20054A936A43F47F439362F3
:1021400000230B7010BD1B20F5E700BF00ED00E081
:1021500070B5454B5B689CB00546C3F30803002689
:1021600086F31188BFF36F8F02F07F40B0F17F4F8D
:1021700011D102F00C0008280DD010074CBF0D46FD
:1021800001260022033B8DF80720032B05D8DFE84A
:1021900003F01E5D615A3546F3E700249DF80730D1
:1021A0009BB96822294602A809F086FF099B002EE8
:1021B00054D0C3F3080222B96FEA53236FEA4323D2
:1021C000099302A9204608F062FE1CB070BD264BA0
:1021D000DA6A9107E1D4DA6A002ADEDBDA6A5200B1
:1021E000DBD55A69A96942F480725A61BFF34F8FF7
:1021F000BFF36F8F5A6931F8021C22F480725A6162
:10220000BFF34F8FBFF36F8F4DF6027291420AD02A
:102210009A6AD2B24AB10DF1070201212846FFF7AE
:10222000E7FE0446BAE72C68B8E79A6A12F47F4FD3
:1022300005D00DF107010120FFF754FFF1E79B6A7C
:10224000B3F5803FA9D3FFF723FFEAE70DF10702BB
:102250000021E3E70DF107010020EDE723F4FF7310
:1022600023F00103ACE700BF00ED00E0044B5A6926
:1022700042F010025A615A6922F008025A6170470E
:1022800000ED00E0EFF30880EFF3098101B572463D
:10229000FFF75EFF01BD00BF002080F31488BFF38D
:1022A0006F8F0F4880F3088803F0E4FA00200D498F
:1022B0000860BFF34F8F00F02BF8202080F31188C7
:1022C00009484FF40861401880F30988EFF314803F
:1022D0000221084380F31488BFF36F8F00F016F9D2
:1022E0000067002094ED00E0803400200749D1F819
:1022F00090200023C2F307221846934200DB704768
:10230000C1F89830C1F8A0000133F6E700ED00E015
:1023100008B572B6002383F31388FFF7E7FF144B69
:102320004FF0FF32C3F88020C3F88420C3F8882020
:10233000C3F88C20C3F89020C3F89420C3F89820E9
:10234000C3F89C20C3F88021C3F88421C3F88821F6
:10235000C3F88C21C3F89021C3F89421C3F89821C5
:10236000C3F89C2162B6BFF34F8FBFF36F8F08BDD8
:1023700000E100E0084B9B6883420BD1EFF305833B
:1023800043B1064B5A6842F080525A605A6A22F4AE
:1023900000425A6205F034BCFC27002000ED00E04A
:1023A00023498A6882F8BDE04FF030001044EFF313
:1023B000098C80E8F01F1EF0100F03D102F17C00A1
:1023C00080EC108A202080F31288BFF36F8F194FA2
:1023D0004FF000668A698A603E60106F164C20607C
:1023E00092F9BDE0506F0023536780F311881EF00F
:1023F000100F03D00023E1EE103A03E002F17C005D
:1024000090EC108AEFF3148323F0040383F3148811
:10241000BFF36F8F04B5104600F07EF9BDE80440AD
:1024200002F1300090E8F01F8CF30988704700003B
:10243000FC27002004ED00E0D41B00201EF0040F58
:102440000CBFEFF30880EFF30980816911F8021CDB
:102450000229FFD001B5724608F01FFD01BD00BF83
:1024600040B2002807DB044A4109012300F01F00A5
:10247000834042F82130704700E100E040B200287C
:102480000CDB4309064900F01F0020330122824083
:1024900041F82320BFF34F8FBFF36F8F704700BF0A
:1024A00000E100E0054B420900F01F0053F8222034
:1024B000012303FA00F01040704700BF00E100E084
:1024C00040B20028A8BF00F1604001F10101B8BF8F
:1024D000064B4FEA4111ACBF00F5614000F00F0020
:1024E000C9B2B4BF195480F80013704714ED00E06E
:1024F000044B054A23F07F039360BFF34F8FBFF374
:102500006F8F70470000000000ED00E008B5FFF796
:10251000EFFF104BD3F8882022F47002C3F8882014
:10252000D3F8882042F4A002C3F888204FF040423C
:10253000C3F83422BFF34F8FBFF36F8F0023E1EE58
:10254000103A04F0A1FC05F093FC00F0BBF804F095
:10255000DDFC00BF00ED00E042F8203C009B42F8AB
:102560001C3C019B42F8183C0A49029B42F8143C6F
:102570004FF0807342F8043C21F00101002342F83F
:10258000081C203A43674FF47D430265C0F8BC3015
:10259000704700BF95130000037B13F0020F124B2E
:1025A00003D190F8BD20D20611D45A6B42F080427C
:1025B0005A63D0F8BC3019075CBF43F00803C0F879
:1025C000BC30037B43F002030373802070475A6BD7
:1025D00022F080425A63D0F8BC301A0744BF23F07F
:1025E0000803C0F8BC30F0E700EF00E0094A0346FA
:1025F000906870B113F1160F006E05D0A0F1800243
:102600009A4205D8834203D2814228BF00207047F6
:1026100000207047FC270020104B9B6883421AD192
:10262000EFF30580B8B9EFF31181202282F312880D
:10263000BFF36F8F1A7B22F002021A73EFF3148339
:1026400023F0040383F31488BFF36F8F81F31188A1
:10265000BFF36F8F70476FF015007047FC270020A5
:1026600008B515460E460022E1EE102AEFF314825B
:1026700022F0040282F31488BFF36F8FBFF36F8FD1
:10268000094A0A4B9060026F1A6000F045F82C4628
:1026900086F309880020064B984720460021002237
:1026A0000023044C204700BFFC270020D41B00203F
:1026B000B9AE000095130000014B10221A6170475B
:1026C00000ED00E0044800232021C2180133302B24
:1026D00082F80013F9D1704700E100E008B5EFF38C
:1026E0000583064A103B02EBC30152F833004968E8
:1026F0008847BDE80840FFF76BBC00BFE0C20000A0
:10270000024B034A0348012100F07CB8000004207A
:1027100000000020B8C6000010B50446FFF73CFFDB
:10272000226E03460548D21AC0E90023044B836099
:10273000BDE81040012100F06FB800BFD81B002099
:1027400000000B15084AC2F898000B6823F01F031D
:10275000034343F01003C2F89C308B6843F001033D
:10276000C2F8A030704700BF00ED00E02DE9F04353
:10277000DFF8608085B00E461F4604464FF0000922
:10278000B14523DA6068D8B13FB1411E08421BD180
:102790007F2819D92368194216D12368019308F0BC
:1027A000AEFBA36803430393D8F89050C5F3072505
:1027B000D0B2013DA84207D801A9FFF7C3FF421CD0
:1027C00009F101090C34DBE76FF01502104605B082
:1027D000BDE8F08300ED00E0044B0522C3F894202F
:1027E000BFF34F8FBFF36F8F704700BF00ED00E066
:1027F000BFF35F8F024B0022C3F89420704700BFE5
:1028000000ED00E010B5034C01232278FFF7AEFF86
:10281000207010BD0E2B002008B50B4A0023127843
:10282000FFF7A4FF10F1160F07D0084A0021D2F8D5
:102830009030C3F30723984200DB08BDC2F898002C
:10284000C2F8A0100130F2E70E2B002000ED00E0EE
:102850002DE9F043534B544CD3F890302568C3F323
:1028600007239D4285B000F29A80FFF7C1FF002048
:102870000C2685421AD14D4C4D4F25706846FEF707
:10288000B1FEDFF82081DFF82C9106460025AE422C
:1028900013D1237843490020D1F89020C2F30722B6
:1028A000934276DBFFF798FF002042E0616806FB69
:1028B0000011FFF747FF0130DBE7009800EB05113F
:1028C0004FEA051CCB683B40B3F5000F48D00AD84F
:1028D000B3F5001F30D0B3F5800F36D0B3F5801FAD
:1028E00010D00135D3E7B3F1807F42D0B3F1007F40
:1028F000F7D150F80C3088684A6808F000FB40F4C3
:10290000802009E050F80C3088684A6808F0F7FA2F
:1029100040F0885040F43020CDE901230390D8F8EE
:1029200090302078C3F30723013B98422AD96FF0F7
:10293000150005B0BDE8F08350F80C3088684A688F
:1029400008F0DDFA40EA0900E6E750F80C30886844
:102950004A6808F0D4FA40F0007040F40030DBE739
:1029600050F80C3088684A6808F0C9FA40F0827064
:10297000D2E750F80C3088684A6808F0C0FA40F096
:102980008870C9E701A9FFF7DDFE237801332370C2
:10299000A7E7C1F89830C1F8A00001337CE74FF0F9
:1029A000FF30C6E700ED00E0C4C600000E2B00209B
:1029B0000000F0FF0000081108B5024B1B689847A3
:1029C000002008BDE41B0020034B044A18609378E4
:1029D00043F0020393707047E41B002024010020A1
:1029E00008B5054807F0F6FE002383F31188BFF30E
:1029F0006F8F0423184602DF16D000000E4A012311
:102A0000C2F840354FF080424FF08051C2F878351F
:102A1000D1F83001082808D1D1F83411052904D89B
:102A20000648415C09B1C2F838364FF080430122B4
:102A3000C3F880250020704700E001401FD000004F
:102A400020B1034B800143F001031847704700BFDA
:102A5000B0C50000020600F07F0312D5082B05D197
:102A6000010700F00F0306D50E48704710F0780FED
:102A700012D100F00F034C2000EB43100A4B184416
:102A80007047082B05D1020700F00F0306D5074851
:102A9000704710F0780FF6D000207047044800EB24
:102AA00043107047341D0020E81B0020541E0020F6
:102AB000541D00200149024809F05EB9101C002095
:102AC000380400200146014809F0F3B880020020D4
:102AD00002480022002304F089BB00BF80020020CE
:102AE00013B5124800F0D4FD114B98421AD1114889
:102AF00003F028FD0024104803F06AFD0F49104838
:102B000000944FF0FF334FF4806204F0FDFC0D4958
:102B10000B4809F053F90C480C4909F011F920460B
:102B200002B010BD6FF00400FAE700BF352D0000C1
:102B30000000AD0B33D00000E4C6000000300020E0
:102B40003804002025D00000101C0020512E000069
:102B500010B50E49BFF35B8F002351E8002F012A07
:102B600003D141E800300028F7D1BFF35B8F0CD1CF
:102B700051F8044C1439204607F032FF783004D164
:102B80002046BDE8104007F007BF10BD081C00201C
:102B900038B5002464F07F00C0B2FFF75BFF01345A
:102BA00008F0C5F9082CF5D10E4D0024E0B2FFF76E
:102BB00051FF036903B90561013408F0B8F9082C25
:102BC00005F14005F2D1084808F0B1F9074BD3F8F8
:102BD0007C2212B9064AC3F87C22064808F0A7F9FD
:102BE000002038BD78220020341D0020E81B002082
:102BF000781E0020541E002010B5054CFFF768FF1A
:102C000020B14168204608F083FFF7E710BD00BF00
:102C10000402002007B500230E48002201A904F099
:102C2000EFF990B1FFF7E8FF0A480022002301A95D
:102C300004F0E6F938B90198042340600374FFF703
:102C400041FFFFF737FF002001E00198406003B02B
:102C50005DF804FB04020020022810B511D8094BCE
:102C60001C5CFFF7D7FF60B1002202740472FFF70B
:102C700029FF054B93F824301BB1BDE81040FFF746
:102C800019BF10BD30D00000E81B0020F8B58778D0
:102C900006463846FFF7DEFE3B06F578044612D5B9
:102CA000002D43D1FFF7B6FF034600283ED0012296
:102CB000A5770274032202739C60FFF703FFBDE84F
:102CC000F840FFF7F7BE4DB1012D2FD1FFF7A2FF5E
:102CD000034658B3657705740573EDE7FFF79AFF70
:102CE00020B3B278124B12F0800F02F0080111D01D
:102CF00041B1D3F8A836E3600123037402230373C0
:102D00008460DAE702F00F02142101FB0233D3F8EA
:102D10000836F0E711B1D3F8A837ECE702F00F025C
:102D2000142101FB0233D3F80837E4E7F8BD00BFF4
:102D300000700240F0B5064689B01422002103A8B5
:102D400009F0E2F93378013B052B21D8DFE803F0E5
:102D50007A0314146A1603238DF814300024FFF745
:102D600059FF0346A0B1047400F10802DDE9050132
:102D700082E8030018461DE00423EDE7B7783846E3
:102D8000FFF768FE837A044623B1013B022B43D947
:102D900009B0F0BD3B06F57813D5002DF8D1FFF74B
:102DA00039FF03460028F3D00122A57702740322DD
:102DB00002739C60FFF786FE09B0BDE8F040FFF7A4
:102DC00079BE55B1012DE3D1FFF724FF034600285A
:102DD000DED0657705740573EBE7FFF71BFF074649
:102DE0000028D5D00123037402230373846004F107
:102DF0000C01B07808F0D8F8134AE168B2F88C32C8
:102E00008B4206D95B1AA2F88C3200F063FF384679
:102E1000D0E7A2F88C52FAE7304609B0BDE8F0409E
:102E2000FFF734BF01A800F033FF9DF80530052BF4
:102E300004D19DF8043013F0600FA9D0034B059323
:102E400001248CE702248AE7E81B0020541D00209F
:102E50002DE9F043A64CDFF89C9285B08046FFF741
:102E600037FE074610B905B0BDE8F08394F8253069
:102E70003A7C3BB9002A00F0878079689D4808F0C9
:102E800047FEECE7042A43D8DFE812F07E00050095
:102E90000101170140013B7BBD68032B38D8DFE8F7
:102EA00003F0023E5B606E69934B002232607260F9
:102EB000D3F880143170D3F884147170D3F8881467
:102EC000D3F88C0441EA00217180D3F89014D3F830
:102ED000940441EA0021B180D3F89814D3F89C34CB
:102EE00041EA0323F3800823EB6030687168834B69
:102EF00003C311462B68687A984796F90030002B77
:102F000009DBF3889AB232B1A4F88C3200F0E2FE09
:102F100079684846B3E70023A4F88C32F8E76B7F62
:102F2000002BF5D02B7F002BF2D000266E774FF0D0
:102F3000FF3273482E774FF0FF3308F00BF86B69C0
:102F400001936B68CDE9023601A9687A00F0F6FBBF
:102F50006B4808F001F8DBE72B680121687A984795
:102F6000D6E7AB7A6BB9EB7F5BB965484FF0FF32C0
:102F70004FF0FF3307F0EEFF00F0B2FE604807F0BD
:102F8000EBFF2B680221E9E73A7A042AC0D8DFE890
:102F900002F059032367730000F03AFB054600284E
:102FA000B6D100F075FABFF35B8F5649012351E8A3
:102FB000002F002A03D141E800300028F7D1BFF3E9
:102FC0005B8FA5D141F8085C41F8105CE069636152
:102FD000143907F08AFC9BE7002565F07F00C0B23A
:102FE000FFF738FD037A13B1407A00F0D7FF0135BF
:102FF000082DF2D194F854311BB194F8550100F02A
:10300000CDFF0025E8B2FFF725FD037A13B1407A22
:1030100000F0C4FF0135082DF4D194F874321BB1CF
:1030200094F8750200F0BAFF002000F0D5FA0123F1
:1030300084F825302368002B3FF46AAF002102207A
:10304000984765E7002584F8255000F00DFFFFF74D
:103050007FFD2368002B3FF45BAF29460420EFE798
:10306000002B3FF455AF00F0DDFA2368002B3FF44E
:103070004FAF00210520E3E72268002A3FF448AF64
:10308000002B3FF445AF00210620904740E708F1B0
:1030900010054FF0FF334FF0FF32284607F05AFF7C
:1030A000FFF776FD284607F057FF58F8283C002B1D
:1030B0003FF42EAF00210120C2E794F874327BB1B7
:1030C000012584F8895284F88852FFF7A3FD38B1AE
:1030D0000D4A057405738260FFF7F4FCFFF7EAFC04
:1030E00058F8283C002B3FF413AF00210A20A7E733
:1030F000E81B00200402002000700240EC1B0020AE
:10310000201C0020081C0020541E002008F08AFC0F
:1031100000F0AAFE00F0B2F9FFF76EFDFFF738FDF0
:1031200008F079FC014800F0B3FAF1E6352D000013
:1031300010B50D484FF0FF324FF0FF3307F00AFF94
:10314000FFF75AFD00F064FA08B100F08DFEFFF7BA
:10315000FFFC08F067FC0548002480F82440383064
:1031600007F0FAFE204610BD201C0020E81B0020BE
:103170002DE9F043DFF8EC801E4698F8243085B046
:10318000074689461546002B61D098F82530002B5C
:103190005DD003065ED5FFF75DFC0446002859D0DC
:1031A000037A002B56D04FF0FF334FF0FF3208F177
:1031B000380007F0CFFEA37F4BB108F1380007F0CD
:1031C000CBFE6FF00A04204605B0BDE8F083A37A79
:1031D000C5B13BB30123A3774FF0000801A93846DE
:1031E000CDE90195CDF80C8000F0A8FA1B4B984270
:1031F00029D084F81E801EBB6FF00404184807F025
:10320000ABFEE0E7E27F02B1E577002BE2D100F010
:103210006DFDB842DED000F063FD114807F09CFE62
:103220000024D0E7B8F80A30AB42F0D96268B5FBA9
:10323000F2F302FB1353002BE9D10123E377E6E716
:10324000C6F80080D8E706B135600024D6E76FF0F5
:103250001204B8E76FF01504B5E700BF0000AD0B2E
:10326000201C0020E81B00202DE9F0411D46204BCA
:10327000174693F824200E46002A33D093F82530C1
:1032800083B3030631D401B97FBBFFF7E3FB0446E8
:1032900058B3037A4BB34FF0FF3316484FF0FF3269
:1032A00007F058FEE3689F42B84628BF984646B9E3
:1032B0003FB905B12B600F4807F04EFE0020BDE876
:1032C000F081A1694246304608F0F6FEA369434406
:1032D000A361E368A3EB0803E360002DEBD0C5F81E
:1032E0000080E8E76FF01200E9E76FF01500E6E70D
:1032F000E81B0020201C002070B51E4D95F82420EE
:10330000034682B395F825206AB31B062ED4FFF737
:10331000A1FB044650B3037A43B34FF0FF334FF0A1
:10332000FF3205F1380007F015FEE368B3B9012656
:1033300063692677A361637F83B1FFF76BFC30B9C4
:1033400005F1380007F008FE6FF00B0070BD067441
:1033500084600673FFF7B6FBFFF7ACFB064807F087
:10336000FBFD0020F2E76FF01200EFE76FF01500B1
:10337000ECE700BFE81B0020201C002008B5074B2D
:1033800093F8243023B1FFF765FB20B1406808BDF6
:103390006FF01200FBE76FF01500F8E7E81B002064
:1033A0004FF08053D3F83021082A06D1D3F83431B6
:1033B000052B04D8034AD05C7047002070470120D9
:1033C000704700BF34D00000064B10F0800FA3F10F
:1033D000D80208BF134600F00F00182202FB00308D
:1033E000704700BF90250020EFF31180202383F366
:1033F0001288BFF36F8F0A4BD3F8001C032261B908
:1034000049F27531C3F8001CC3F8142DC3F8001C31
:1034100080F31188BFF36F8F7047C3F8142DF7E75F
:1034200000E00640EFF31180202383F31288BFF3FE
:103430006F8F0A4BD3F8001C61B949F27532C3F89B
:10344000002CC3F8141DC3F8002C80F31188BFF3BF
:103450006F8F70470022C3F8142DF6E700E0064096
:103460004FF08053D3F83031082B02BF024B0022BB
:10347000C3F81C2C704700BF00700240024A0023B2
:103480001360024A1370704770260020132B00202F
:1034900008B54A4B4FF40062C3F80024FFF780FFE1
:1034A00008B1FFF7A1FF4FF08053D3F83031082B5C
:1034B00018D1EFF31180202383F31288BFF36F8FAD
:1034C0003F4BD3F8001CC02200296ED149F2753160
:1034D000C3F8001CC3F8142CC3F8001C80F3118837
:1034E000BFF36F8F354B0122C3F80025D3F80024BA
:1034F0001205FBD54FF40062C3F800244FF080534F
:10350000D3F83031082B17D1EFF31180202383F348
:103510001288BFF36F8F2A4BD3F8001C002947D1C4
:1035200049F27532C3F8002CC3F8141CC3F8002C00
:1035300080F31188BFF36F8FFFF732FF30B1FFF7D1
:1035400071FFFFF72DFF08B1FFF74EFF4FF08053DB
:10355000D3F83031082B194B0AD140F2E372C3F88B
:1035600000284022C3F80428BFF36F8FBFF34F8FAA
:103570008022C3F81C250122C3F83025114B40F2EC
:10358000FF121A60104B00211960104B1970FFF7E1
:1035900067FF0F4B19700F4B02221A70FFF700FFE5
:1035A00050B1BDE80840FFF73DBFC3F8142C95E7C4
:1035B0000022C3F8142CBBE708BD00BF0070024016
:1035C00000E006406C260020682600200F2B00201B
:1035D000112B0020132B0020094B002210B51A706C
:1035E000084A094B094C002808BF1346C4F80033A9
:1035F0002720FEF735FF0123C4F8043510BD00BFB6
:10360000122B0020FDFFDF01FDFFFF0100700240D3
:10361000034B1878012894BF00200120704700BF99
:10362000132B002010B54FF0FF324FF0FF33154839
:1036300003F042FEEFF31181202383F31288BFF3DE
:103640006F8F114B1B7803F0FF0483B10F4BD3F83E
:10365000002412F400720AD10120C3F82C05D3F81B
:103660002C05D3F80004800502D5C3F82C250024CE
:1036700081F31188BFF36F8F024803F0E9FD204604
:1036800010BD00BF70020020122B0020007002400D
:10369000F8B51C4B1C7894BB1B4A106001221A70B1
:1036A00040F2FF17264664F07F0514F0080FEDB2D4
:1036B00014BF39464021284607F071FC2846FFF721
:1036C00083FE0134092C867506730661EBD1002454
:1036D00040F2FF17254614F0080FE6B214BF394632
:1036E0004021304607F05BFC3046FFF76DFE0134A9
:1036F000092C857505730561EDD10448F8BD0448B2
:10370000FCE700BF132B0020702600200000AD0B4B
:103710000500AD0B084B10F0800F00F00F0114BF37
:10372000D3F81025D3F8142501238B40134214BF7E
:1037300001200020704700BF007002402DE9F843CF
:103740000246EFF31187202383F31288BFF36F8FB4
:10375000030703D1184B1B78834229D1174B184E0E
:103760001C683568104607F012FCE443A4B24FF021
:1037700001092C4309FA00F814EA08041AD110468A
:10378000FFF722FE80F80C90034607C91C6183E80E
:1037900007009C750B4B0C4845EA080580223560F4
:1037A000C3F8042187F31188BFF36F8FBDE8F88356
:1037B0000648F7E70648F5E7112B00206C260020A5
:1037C0006826002000E100E00000AD0B0A00AD0B10
:1037D0000B00AD0B10F0080F074B06D0D3F8C00458
:1037E00010F4803F18BF0020704700F00F0000F574
:1037F000947053F820007047007002402DE9F74F95
:10380000AB4BAC4ED3F85421DAB10022C3F85421AB
:10381000D3F80413890214D58DF80420D3F8202599
:10382000ADF80620D3F8C034002B336814BF4FF036
:1038300001224FF48072134333609F4B01A81B6831
:1038400098479B4BD3F8604134B10022C3F8602104
:10385000D3F86C44C3F86C44D3F828214AB1002251
:10386000C3F82821954B187807F091FB012383407A
:103870001C43DFF86482924F98F8005098F900904A
:1038800015F0080143D1B9F1000F05F00F032EDA4E
:103890008C4A52F8230020B342F8231014225343D9
:1038A00003F1804303F51C33D3F80836864A1178B8
:1038B00003F001034B401370FFF7D2FD834803F080
:1038C000C7FC2846FFF780FD837D032B37D12846B0
:1038D00007F05DFB012303FA00F03B6823EA0003D5
:1038E0003B60DFF8D4A101254FF006095DE0784A7E
:1038F00052F823000028F4D042F823101422534336
:1039000003F1804303F51C33D3F80837CEE7B9F150
:10391000000F674B09DBD3F85021002AE1D00022C9
:10392000C3F85021D3F8A837C0E7D3F82C21002AD8
:10393000D7D00022C3F82C21D3F8A836B6E7037BF2
:10394000DBB9284607F023FB012303FA00F03B68AC
:10395000B9F1000F23EA00033B6001DA882DC0D1E2
:1039600006238DF8043000238DF80730524B8DF874
:1039700006501B6801A89847B3E7002DB1D14C4B06
:103980000122DA64ADE794FAA4F03268B0FA80F06C
:1039900005FA00F31A430F28326024EA03043A6858
:1039A00040F39C80134200F0A980002CEBD1404BE7
:1039B000D3F800215AB1C3F80041464B1C703F4B6D
:1039C0001C70012301933C4B01A81B689847384B9E
:1039D000D3F85821002A2ED00022C3F85821D3F85A
:1039E0000044C3F80044E30508D53A4B01221A709D
:1039F00002230193304B01A81B689847A50508D501
:103A0000344B00221A70032301932B4B01A81B682F
:103A1000984760050FD52F4B1A7862B100221A70B3
:103A2000234B0122C3F808259A6504230193224BF6
:103A300001A81B6898471E4BD3F85C3103B3234B96
:103A40009B681BB998F80030590619D0184B002212
:103A5000C3F85C21D3F88034184A23F07F03137035
:103A60003B6823F001133B60336823F4803343F059
:103A700001033360052301930F4B01A81B6898478E
:103A80003A6833681A4200F0EB80104800220023A5
:103A900003F012FC002840F0E380054BD3F82C35EE
:103AA000002B7BD0094803B0BDE8F04F03F0D0BB3A
:103AB000007002406C26002070260020112B002090
:103AC00068260020087102400F2B002070020020A1
:103AD00030710240122B0020102B002013407FF485
:103AE00064AF60F07F018DF804908DF806108DF8BA
:103AF0000730DAF8003001A8984756E7A0F1100126
:103B00008DF804908DF806108DF80750F1E749F014
:103B100080052846FFF758FC4368B0F814A00168F8
:103B20009A4528BF9A4601F06043B3F1005F04460E
:103B300004D05448524608F0BFFA524922686368DC
:103B400052442260A268A3EB0A03D20768B2636002
:103B500053D5BAF1000F52D1002323734FE0114621
:103B60004FF0000A604545D1003B18BF0123002AF1
:103B700042D0504540D9012303FA09F32BEA03034D
:103B80003B6006238DF804303F4B8DF8065002222F
:103B90001B68A2758DF8072001A89847D7F800B0D8
:103BA00033681BEA03093FF47DAF19F0012314BF0A
:103BB00093FAA3F999FAA9F9B9FA89F9B9F10F0FAA
:103BC000A5D9A9F11005EDB22846FFF7FDFB044683
:103BD0002846FFF7FFFD6368B4F814C022689842D6
:103BE000BDD81B1A00EB020E11466360C4F800E05A
:103BF0008246B7E70023BAE768B2002BACD04FF09B
:103C00008053D3F83031082B02BF204B8222C3F8F7
:103C10001C2C336888F80050012202FA09F923EAC3
:103C200009033360236915F0080F53442361174BD0
:103C300019D1002805F00F054FF0140000FB0530E6
:103C4000A9BF0A3503EB8503C0F80017C0F804A725
:103C5000AFBF43F82520C0F80016C0F804A65A608C
:103C600003B0BDE8F08F0028B5BFC3F8A016C3F8B5
:103C7000A017C3F8A4A6C3F8A4A7B4BF5A629A6455
:103C8000EEE700BF7824002070260020007002407C
:103C90000023036043600E4BD3F880240270D3F8F6
:103CA00084244270D3F88824D3F88C1442EA012289
:103CB0004280D3F89024D3F8941442EA01228280FF
:103CC000D3F89824D3F89C3442EA0323C380704786
:103CD00000700240014B0122DA647047007002401C
:103CE000014B01221A65704700700240014B1878A1
:103CF000704700BF112B002010B50246EFF311846E
:103D0000202383F31288BFF36F8F07F040F90B492C
:103D1000012303FA00F00B6823EA00030B6012F0A2
:103D2000080101BF02F00F02054B02F5947243F83F
:103D3000221084F31188BFF36F8F10BD6C26002012
:103D400000700240F7B50146EFF31185202383F39D
:103D50001288BFF36F8FFFF737FB0646084607F060
:103D600016F9012211F0800F02FA00F22D4818D145
:103D7000036832EA03040AD00846FFF7BDFF0323B5
:103D8000B37585F31188BFF36F8F03B0F0BD26497B
:103D9000347323EA020303600B6823EA02030B6017
:103DA000EDE70B0715D48029204B2FD001F00F042D
:103DB00004F2DA346400C3F80048D3F80448D3F8B6
:103DC0000478E4B244F002043C43C3F80448D3F856
:103DD0000438154F04683B6864EA030C1CEA020FC0
:103DE000CFD013433B60002333730323B3758DF8A7
:103DF00007300F4B8DF8061024EA020406220460F7
:103E00001B688DF8042001A89847BAE740F2B47403
:103E1000C3F80048D3F80448D3F80478E4B244F077
:103E20000404D1E7682600206C26002000700240C0
:103E30007026002038B50446094D4FF0FF324FF090
:103E4000FF33284603F038FA2046FFF77BFF284669
:103E500003F0FEF9034B8022C3F8042138BD00BFF4
:103E60007002002000E100E0F8B54FF0FF324FF0A3
:103E7000FF332B4803F020FA2A4B8022C3F8842119
:103E80002720FEF70FFB98B1274E284B34681B689C
:103E9000240C24041C43012764BB254D40F2FF136E
:103EA00033602720C5F80445FEF7E8FAC5F800435B
:103EB000204A13788BB11E4B0021C3F80811012151
:103EC000C3F80026C3F804165960D3F80811002976
:103ED000FBD00021C3F808111170154B0022C3F864
:103EE0000025FFF7BDFA0E4803F0B2F9124B01228C
:103EF0001A70F8BD94FAA4F5B5FA85F50F2D284689
:103F0000C6BFA5F11000C0B240F08000030701D485
:103F1000FFF718FF07FA05F524EA0504BCE700BF20
:103F20007002002000E100E06C26002068260020DE
:103F3000007002400F2B0020132B002010B5044608
:103F40004FF0FF324FF0FF33114803F0B5F9204630
:103F5000FFF7F8FE04F00F02012393400D4A14F01E
:103F6000800F14BFD2F81015D2F814156FEA0303AE
:103F700015BF0B400B40C2F81035C2F81435044889
:103F800003F066F9044B8022C3F8042110BD00BF82
:103F9000700200200070024000E100E070B50446AD
:103FA000FFF7B8FB68B904F00F02012514F0800F89
:103FB000144B05FA02F205D0D3F810150A43C3F8E2
:103FC000102570BDD3F814150A43C3F81425631ED9
:103FD000062BF6D8EFF31186202383F31288BFF364
:103FE0006F8F2046FFF788FE204606F0D0FF064A76
:103FF0001368854023EA0503136086F31188BFF335
:104000006F8FDEE70070024068260020084B70B515
:10401000C31A0D4607499B100446594306484022DF
:1040200006F0E1FF2B4601462046BDE870401847E8
:1040300088260020B76DDBB600C2000073B50C4CBB
:104040000C4A4023041B00930D460B460A49A4105A
:1040500061430646094806F0F1FF011E05DA3046C5
:104060002B4602B0BDE87040184702B070BD00BFDB
:1040700088260020A5B00000B76DDBB600C20000A6
:1040800010B5EFF31184202383F31288BFF36F8FF1
:10409000074A136823F00201DB07116002D40120F4
:1040A00007F01DFC84F31188BFF36F8F10BD00BFB4
:1040B000D8260020002270B5012104461046FEF7E4
:1040C000FFF90F4801F06EFD0E4B984215D101F03B
:1040D00079FD26690C49304606F0F4FB00280BDB1D
:1040E000012535642469084904F11C0006F0EAFB47
:1040F000002801DBE564002070BD6FF00400FBE7E1
:10410000094200000000AD0BE8C600001FB5002208
:104110000123CDE90223094ACDF800D06B46CDF842
:1041200004D006F0B8FF002805DB4FF480420023DE
:10413000684603F0C1F805B05DF804FBC5B00000A7
:1041400030B4104B0C2202FB003301460020D3E9AF
:104150000E529863EFF31180202484F31288BFF38A
:104160006F8F1C6C04F0C00444F002041C6480F3E4
:104170001188BFF36F8F1DB12B46034830BC184721
:1041800030BC70478826002000C2000010B4EFF356
:104190001182202383F31288BFF36F8F18480168C0
:1041A00041F002040460C80708D482F31188BFF309
:1041B0006F8F01205DF8044B01F01CBD4FF0804172
:1041C000D1F80C04D1F80C14C907EED5EFF3118027
:1041D00083F31288BFF36F8F0A490B6C03F0C0039F
:1041E00043F002030B6480F31188BFF36F8F82F3F7
:1041F0001188BFF36F8F00205DF8044BFFF7A0BF5D
:10420000D82600208826002010B1012804D070474D
:10421000034B1B6C5B0701D1FFF792BF704700BFD8
:10422000882600202DE9F0413849BFF35B8F07460F
:10423000012251E8003F41E800200028F9D1BFF3F6
:104240005B8F33B9324933484B60CB608A6006F0EC
:104250004CFB7B1E012B2BD8012F07D14FF0804345
:10426000D3F81C3403F00303012B21D007F0A0FD89
:104270000546F8B9284B1B78E3B14FF08043022282
:10428000C3F808230646DFF894804FF08044D4F842
:104290001824D4F81834D20315D503F00303012BE6
:1042A00001D0012F0FD155B386F31188BFF36F8F63
:1042B000BDE8F081EFF31186202383F31288BFF36A
:1042C0006F8F0125DFE7ADB1304606F009FED4F867
:1042D0001835002BDBD1D4F80421002AD7D0C4F83C
:1042E0000431D4F804310123C4F81835C8F88031FA
:1042F000A360CCE70021212007F0FAFDE7E74FF0AB
:1043000080430222C3F80423D2E700BF84260020A2
:1043100074260020A4260020392B002000E100E0B4
:1043200008B5074807F09BFB38B10648FEF74CFB81
:104330000448FDF711F8002008BD6FF01200FBE7FC
:1043400060C20000494300000A2838B5074D044602
:1043500004D1AB680D215B6828469847AB680348D9
:104360005B68E1B29847204638BD00BF60C20000DC
:1043700000F1744000F5A6000A289ABF024B33F9F9
:1043800010006FF00F007047B6C90000024B0B60C1
:1043900001231360704700BF78C7000000487047D2
:1043A0000CC700000268154BFF2A08BF4FF0FF3210
:1043B000C3F824254268FF2A08BF4FF0FF32C3F834
:1043C00028258268FF2A08BF4FF0FF32C3F8302546
:1043D000C268FF2A08BF4FF0FF32C3F834250269D4
:1043E000FF2A08BF4FF0FF32C3F838254269FF2A81
:1043F00008BF4FF0FF32C3F83C25704700900240E1
:10440000054B994206D14FF0FF324FF0FF33103089
:1044100002F052BF704700BF0000AD0B2DE9F0471E
:1044200043685D6B90B007460AAA0021284606F053
:10443000D1FF041E6FDB0A9B2A681979186800F007
:1044400007FD041E67DB002201212920FEF738F852
:10445000D7F804803A695A49404602F04FFBFFF70B
:1044600087FF041E52DB574D0FCD0AAC0FC495E8F1
:10447000030000260DF1040984E803000196AB2334
:10448000C9E901668DF804304F4BD3F82425D2B228
:104490000492D3F82825D2B20592D3F83025D2B2AF
:1044A0000692D3F83425D2B20792D3F83825D2B287
:1044B0000892D3F83C350AA8DBB20993FFF772FFE4
:1044C000012002F091FB04AD01462846FFF76AFF88
:1044D0003E4B994223D13146484606F066FE041E03
:1044E00014DB082007F0B6FA4FF0030A9F23314689
:1044F0000AA8CDE90A66CDF81090CDF814A08DF881
:1045000028300C9506F051FE041E0BDA02F08AFBEF
:1045100008B102F075FB204610B0BDE8F0876FF0DF
:104520000404F3E75246494608F1300007F0F4FD71
:10453000044600283ED17A68537F023B012B37D9CD
:10454000167F023E022E8CBF00260126022006F0B6
:1045500072FE002831DBC3B2C0F340008642D5D0E2
:1045600083F0020300260120ADF800608DF80130D1
:1045700006F061FE041EC9DB022301210AA88DF8A2
:1045800000400A96CDF810D005930C968DF82810AF
:104590000B9506F00AFE04460028B7D1012006F06C
:1045A0004AFE041E01DBE307F8D404EAE474ADE735
:1045B0000126CBE76FF01204A8E70446A6E700BF88
:1045C0009FB1000060C50000009002400000AD0BEC
:1045D0002DE9F3470F46054641681E469046002ADE
:1045E00079D0002B77D0042B01D9B30773D117F002
:1045F000030470D1002F6EDBCA6ABB1993426AD8DC
:10460000284606F050FE204606F000FE044648B15B
:10461000012006F0FBFD284606F02BFE204602B0E6
:10462000BDE8F087032E1ED804213A460DEB0100A9
:1046300007F009FA044601462869FFF7E1FE274B17
:104640009C4235D13246414601A807F035FD042190
:104650003A460DEB010007F0F3F9044601462869DC
:10466000FFF7CEFE24E008F06043B3F1005F02D113
:1046700018F0030F2BD0DFF864A0042EB14628BF3A
:104680004FF004094A46414601A807F015FD3A4695
:10469000494601A807F0D4F9044601462869FFF706
:1046A000AFFE544504D1B6EB0906C8444F44E4D1EB
:1046B0002046FFF75DFE0446012006F0A7FD0646F2
:1046C000284606F0D6FD002C08BF3446A6E73A4639
:1046D00031464046BFE76FF015049FE70000AD0B81
:1046E0002DE9F04F824685B088461C461746002AC1
:1046F00000F08F80002B00F088800029C0F28980B4
:104700004268D26ACB18934200F28380C8F1000558
:1047100005F0030506F0C7FDA54228BF25467B42EC
:1047200003F0030307F0030658BF5E42764206F02B
:104730000306A64228BF2646631BA41B24F00304DD
:1047400023F00309A145C8BFA14603F0030BC8BF6E
:10475000A3EB040BB9F1000F18D0BB1908EB05024D
:1047600049461846019307F06EF904460146DAF807
:104770001000FFF745FE284A94423DD1B54205D0CE
:10478000019B4A461946781907F0A4FCC5B1C5F14A
:104790000406A8EB0602042102A807F054F9044617
:1047A0000146DAF81000FFF72BFE1B4B9C4223D189
:1047B00006F108032A460DEB0301384607F07CFC9E
:1047C000BBF1000F17D0082108EB05024A440DEB9E
:1047D000010007F038F904460146DAF81000FFF747
:1047E0000FFE0D4B9C4207D109EB05005A4602A96A
:1047F000384407F061FC084C504606F03AFD20466C
:1048000005B0BDE8F04FFFF7B3BD184605B0BDE8F1
:10481000F08F6FF01500F9E70000AD0B2DE9F047C0
:10482000C1F30B03D0F804C007460E461546002A14
:104830006CD0C2F30B0252EA030467D1002965DB96
:10484000DCF82C204B19934260D806F02CFD204652
:10485000D7F8048006F0DAFC0446002850D1DFF8CF
:10486000B890D8F82C30AB4222D107F0EFF8AA4626
:10487000044638692146FFF7C3FD4C452DD1564407
:10488000A5EB0A0500214FF4A47007F031FB0120CD
:1048900006F0D1FC041E30DB14F00104F2D1002D2F
:1048A000DFD1012006F0B2FC002C08BF044627E04F
:1048B000B5F5803F09D3B3B2A3B93146012002F068
:1048C000BBF94FF4803A0446D3E7B5F5805F09D2CF
:1048D000104938690F4CFFF793FD2046FFF748FD5C
:1048E0000446DEE7C6F30B000028F1D1314602F0A2
:1048F000A3F94FF4805A0446BBE7012006F086FC7A
:10490000384606F0B6FC2046BDE8F0876FF0150487
:10491000F9E700BF0400AD0B0000AD0B024B0B60CC
:1049200001231360704700BFDC2600200048704759
:1049300080C7000010B5012211460648064C07F05A
:10494000C3F907F058F8206007F051F860600020C4
:1049500010BD00BFE4260020DC2600204FF080427E
:10496000D2F81015D2F8103501F01E0123F01F0304
:104970000B4343F00103C2F81035024B00221A70BA
:10498000704700BF142B00204FF08053D3F8303114
:10499000082B20D14FF08042D2F81015CB071AD542
:1049A000D2F8103501F01E0123F01F030B43C2F8AB
:1049B0001035D2F808315BB1D2F8103523F01F035F
:1049C0000B4343F00103C2F810356FF08B007047C2
:1049D000024B01221A700020704700BF142B0020E8
:1049E0002DE9F0410D46164607F001F8314607461D
:1049F000284606F075FC78B3B5FBF7F307FB1353B5
:104A000053BBB6FBF7F407FB14642CBBB7421DD8AD
:104A10004FF0FF324FF0FF331148DFF8488002F0CB
:104A20004BFC06F0E4FF0746FFF7AEFF044680B9F3
:104A3000284601F059FD98F800300BB1FFF78EFFC2
:104A4000F61B3D44F0D1064802F002FC2046BDE8CA
:104A5000F0816FF08B04F6E76FF01504F6E700BF06
:104A6000E4260020142B00202DE9F8430E463046A2
:104A7000194617461C4606F033FC88B346EA04057F
:104A800015F003052CD1BCB11748DFF864904FF046
:104A9000FF324FF0FF3302F00FFC24F00304AC426E
:104AA00006EB05080BD1114AD2F80034DB07FBD521
:104AB00000240D4802F0CCFB2046BDE8F883FFF748
:104AC00063FF50B97959404601F02EFD99F8003046
:104AD0000BB1FFF743FF0435E1E76FF08B04E8E724
:104AE0006FF01504E8E700BFE426002000E0014075
:104AF000142B0020F0B516464268107B01F01F040D
:104B000044EA4014106987B0002872D0B6F5001F3F
:104B100002F1100506D12146284606F060FF00206C
:104B200007B0F0BD01A80027B6F5800F01974760D8
:104B300039D1B3F1007F14BF052304238DF804306D
:104B40000023CDE904030393936823FA01F111F0E4
:104B500001010DF103073ED1B6F1A07F3BD104F076
:104B60001F03620903F5E07328D0012A47D1254AC3
:104B700052F82330DB072ED43A462146284601F06E
:104B800023FB214B98421CD0029703AA21462846BA
:104B900001F0DAF91D4B98422ED101222146284618
:104BA00001F06AFBBBE7B3F1C06F05D0B3F1007F42
:104BB00014BF01230223C1E70323BFE74FF0A04244
:104BC000D6E73946284601F04FFB104B9842DBD020
:104BD0006FF00B00A4E73A462146284601F0F4FAAC
:104BE0000A4B9842D1D19DF80310284601F034FBBE
:104BF000CBE76FF0850093E76FF0150090E751F871
:104C00002330FFDE000300500400AD0B0000AD0BAD
:104C1000420970B5034602D0012A17D070BD0D4E6F
:104C2000326951680029F9D003F01F0301250C688F
:104C30009D400029F2D08A682A4002D04B68304655
:104C400098472CB1236821461C46F2E7024EE7E75D
:104C50002346F8E740C2000020C2000038B545688E
:104C60002B69B3B11035284601F0ECFA044680B93F
:104C70000146284601F0C2FA084B98420BD1084978
:104C80002246284601F09AFA224605210620FDF721
:104C900017FC002038BD6FF00400FBE70000AD0BEF
:104CA000114C00002DE9F043466840F20635D0066D
:104CB000337B87B002EA050554BFC2F340100320DE
:104CC00001F01F07B5F5837F144647EA43178DF8B7
:104CD000030044D00FD8062D18D007D8B5B1022D47
:104CE0003FD06FF0150007B0BDE8F083B5F5807FC9
:104CF000F7D101250AE040F20222954233D0B5F502
:104D0000407F32D0B5F5007FEBD1022522032ED5AE
:104D1000726801238B40C2F80835326992BB07F0F4
:104D20001F037F092BD0012F79D13F4A02EB830269
:104D300084F48033D2F80017C3F30043C4F3404433
:104D400044EA430421F4E16144EA800421F00701CC
:104D500044EA05230B43C2F800370020C3E70725C8
:104D6000D4E70425D2E70525D0E70325CEE7630382
:104D700041BF012372688B40C2F80C35CDE74FF07C
:104D8000A042D3E710360DF102023946304601F059
:104D90001BFA14F4403F80460CD13946304606F0E9
:104DA0001CFE224B9845D8D19DF80210304601F0E8
:104DB00053FAD2E701AB4FF0000903AA3946304657
:104DC000CDE90439CDE90199CDF80C9001F0BCF89A
:104DD000164B984285D114F4003315D09DF803305A
:104DE0008DF80E3084F48034C4F300444B4603AA9B
:104DF000394630468DF80C508DF80D4001F060F9C1
:104E00000A4B9842CDD06CE7CDE9043303AA0DF1EB
:104E1000030339463046039301F096F8F0E703F5B3
:104E2000E07352F82330FFDE000300500000AD0BAA
:104E3000036803F01F025B09026004D0012B0348E2
:104E400018BF002070474FF0A0407047000300508B
:104E50002DE9F04FDFF89491DFF894A185B0154665
:104E6000834600EB810140F2FF18594503D1002031
:104E700005B0BDE8F08FDBF800305E04C3F3C32259
:104E8000C3F3080400F1AC801B0E19F8027044450E
:104E900008BF4FF0FF34222B00F2A580DFE803F0BB
:104EA00012191F22252B22A3A3A3A33B68A3A3A30C
:104EB000A3A3A3A3A3A36B818487A3A3A38A919491
:104EC000979A9D00C5F80C45601C5ED10BF1040B50
:104ED000CBE7C5F81445621CF8D000265FE0C5F8A2
:104EE0000845F1E7C5F81045F5E7631CC5F8084526
:104EF000ECD0002604E0661CC5F80C45E6D001267F
:104F000003A80394FFF794FF039B012202FA03F323
:104F1000C0F80C3508E0C5F80845002FDBD1631C4C
:104F2000D4D0002632460627DBF80030019303F484
:104F30000040002818BF002203A8009218BF0126D5
:104F40000394FFF775FF039C019B009A00EB84001C
:104F5000C3F3412CD0F800473B0243EA8C031343D0
:104F600004EA0A04234343EA4603C0F80037ADE7E6
:104F7000C5F80C45D1E7C5F86045601CDBF800308A
:104F8000A4D0C3F30043002BB9D003A80394FFF7C8
:104F90004FFF039B012606FA03F3C0F8083532469B
:104FA000C2E7C5F86445E8E7C5F86845E5E7C5F830
:104FB0006C45E2E7C5F82445621C87D00022012633
:104FC000B2E7C5F828457FE7C5F83045F4E7C5F8EE
:104FD0003445F1E7C5F83845EEE7C5F83C4573E7D9
:104FE0006FF0150044E76FF0850041E795D00000B1
:104FF000F0F8FCFF2DE9F041044647680D4606F045
:10500000D7FE4FF0200888B9264B1B7873B1642671
:10501000606806F096FAF0B9012006F052FC013EF5
:10502000F6D10021212006F063FFF0E7EFF31186AF
:10503000314688F31288BFF36F8F606806F081FAFB
:10504000A8B986F31188BFF36F8FEFE786F3118855
:10505000BFF36F8FE5E7EFF31186314688F31288CF
:10506000BFF36F8F606806F06CFA0028EED0BB6962
:105070001D706368BA691B680020C3F844250122CB
:10508000C3F84825C3F82001D3F82041C3F85801DC
:10509000D3F858019A6081F31188BFF36F8FBDE890
:1050A000F08100BF392B0020F8B500220546012110
:1050B0000220FDF705FA0220FDF7D2F96C68012104
:1050C000E06806F094FA6B681A682369C2F8243520
:1050D000617D237D0B43A17D0B43C2F86C356E6867
:1050E000D6E9004313F0010342D02F6907F10C0009
:1050F00006F0F3FB2D4B984254D1387B04F10C029F
:1051000004F5907106F0DFFB387B012707FA00F009
:1051100000F0E0FC0823C4F80035B369C4F8443556
:105120000023C4F84835A760D4F85831002BFBD0D1
:105130000026C4F800656B683146D86806F057FA57
:105140006D6831462C68E86806F051FA0823C4F807
:1051500000352A7A52B9EB69C4F834350123C4F812
:105160003835C4F81021D4F8102123600020F8BD90
:105170000822C4F80025B269C4F84425C4F84835AB
:105180000123A360D4F82031002BFBD00023C4F806
:105190002031D4F820310123E3604FF48073C4F848
:1051A0000433C1E76FF00400E1E700BF0000AD0B7E
:1051B00070B5012383400E4ABFF35B8FDC4352E896
:1051C000001F01EA040542E80056002EF7D1BFF3A4
:1051D0005B8F4FF4803282400648C0F80823BFF34B
:1051E0005F8FBFF36F8F0B4214BF0120002070BD93
:1051F000102700200010014070B40E49D1E900349E
:10520000D01AC31844F1000422F07F46C1E90034EB
:10521000A6F50013B3F5400F09D2074B1B681A0A15
:105220001B069C19054B42F10005C3E9004570BC03
:1052300002F0FABE280500201427002030050020C7
:1052400011B3BFF35B8F0123104A834052E800CFB4
:105250004CEA030C42E800C10029F7D1BFF35B8F91
:105260000B4A4FF480338340C2F80433094BBFF339
:105270005B8F1B68BFF35B8FC340DB0742BF064BEE
:105280004FF40032C3F80021704700BF1027002000
:10529000001001400C27002000E100E00D4B1868D1
:1052A000010A0006BFF35F8F0B4BD3F804351818C3
:1052B00041F10001B3F5801F0AD2084BD3E9002366
:1052C000904271EB030303D210F1807041F10001B1
:1052D000704700BF14270020001001403005002057
:1052E0002DE9F04F85B016461F469DF840A00446B4
:1052F000FFF75EFF0190FFF7D1FFB04271EB0703AC
:1053000054D23E4B301A67EB0101984271F1000113
:105310004FD23B4B03EB0413D3E902239F4208BF58
:1053200096425ED037494FF4803804F1500508FAB0
:1053300004F8AD00C1F848832046ADB206F0AFF9DD
:1053400026F07F4B05F1804504F5A87305F58835F7
:10535000DC464FF003090293029A2CF07F4341F898
:105360002230C1F84483D1F80435274A6FF0020097
:10537000C01A604420F07F40904232D9286868B15A
:10538000D1F804350393A3EB0B0020F07F40B0F578
:10539000000F26D9204606F082F9039BBAF1000FD0
:1053A00007D109EB030C09F10109D5E7BAF1000FA8
:1053B00009D06FF0150520460199FFF741FF2846F7
:1053C00005B0BDE8F08F0123104ABFF35B8FA34007
:1053D00052E8000F184342E800010029F8D1BFF35A
:1053E0005B8F07490E98230101EB0412C8500F9BF5
:1053F0005360C2E902670025DDE700BF01008000BD
:105400001805002000100140FDFF7F000C27002040
:105410007FB51C4C1C4BC4F80833C4F848331B4BF5
:1054200000254FF0FF304FF0FF31C4F80855C3E9B5
:1054300002014FF48033C4F80433154B02264FF4B5
:1054400000320121C4F804631120C3F880212A46E8
:10545000FDF736F81120FDF703F80E4A0123A3608B
:10546000236013600C4B0D4A0093CDE901550023D6
:105470002846FFF735FF3046FEF7D4FE284604B035
:1054800070BD00BF0010014003000F001805002090
:1054900000E100E010270020F9510000FFFF7F002D
:1054A0002DE9F7432F4CD4F8043399070BD5D4F8E2
:1054B000043143B12C4A0023C4F80431D4F8043138
:1054C000136801331360D4F80433DA0329D5BFF32A
:1054D0005B8F264B53E8002F22F0010143E80010B8
:1054E0000028F7D1BFF35B8FD30702D4D4F8403143
:1054F000BBB10025C4F84051D4F84031FFF7CEFECF
:10550000EFF31182202383F31288BFF36F8F184BC0
:10551000D3E90267B042B94106D282F31188BFF3E2
:105520006F8F03B0BDE8F0834FF0FF384FF0FF39C5
:10553000C3E90289D3E900101D604FF48033C4F839
:105540004833C4F84051D4F8403182F31188BFF396
:105550006F8F0029E5D0009032463B4628468847A9
:10556000DFE700BF00100140142700200C270020B7
:105570001805002030B5431C124C85B005D084427C
:10558000A8BF0446012CB8BF0124FFF787FE0E4BCD
:105590000C4DD3E90013401AB0F5000F10D22218B9
:1055A000AA4228BF2A4652184FF00000074900912E
:1055B000CDE9010043F10003FFF792FE05B030BDD5
:1055C0002A46F0E7FFFF7F0028050020F951000080
:1055D00008B5FFF763FE024B1B68C01A08BD00BF89
:1055E0002805002010B5084C012363601120FCF74A
:1055F00045FF064BC4F80833C4F84833044B4FF456
:105600000032C3F8802110BD0010014003000F00DC
:1056100000E100E030B50C490C4D0B680246002457
:1056200005EB0310D0F80808C0B218B904B10B603C
:10563000002007E00133072B4FF00104F0D90B6085
:105640006FF01B00136030BD1827002000E0014000
:10565000F0B5816885B01039054621F0070405F0E2
:10566000EBFA0B4B6E4603F1100C32461868596882
:10567000374603C7083363453E46F7D1102321461A
:10568000284605F0A8FA003818BF012005B0F0BD83
:10569000CCC9000030B50D46816887B0102302AA3E
:1056A0001039044605F082FA002802DA012007B01A
:1056B00030BD102202A9204606F05EF800283AD13B
:1056C0001E49102202A806F027FD00280CBF012366
:1056D00002232B70204606F03BF8012301460DF112
:1056E0000702204605F062FA0028DFDB9DF807304C
:1056F00003F00F021B096A702B7101220DF10701E3
:10570000204606F039F810B96B78042B03D9012331
:105710006B7000232B71A268183A22F00702083A36
:10572000A91C204606F03BF80028BFD1E91C204602
:1057300006F08DF8BBE70323CBE700BFCCC9000020
:10574000F0B5354F460085B00546694657F8260046
:1057500006F083F8044610B1FF2005B0F0BD013615
:1057600002A957F8260006F078F8012837D12B480F
:105770002A46492105F0FFF9294B02938DF80C4088
:105780009DF800609DF80870264C00222078314674
:1057900005F0E4FF50B36078394605F0DFFF28B329
:1057A000A378042B03D09DF8031099421ED1E3780F
:1057B000042B03D09DF80B10994217D12379042BA9
:1057C00010D16279022A1DD1174B18482A46492167
:1057D00005F0D1F96079831E022BBED9BCE7002801
:1057E000CED0B9E79DF802109942EAD00132032ADF
:1057F00004F10604CAD10E482A46492105F0BBF936
:105800000120AAE7032A05D00A4B0B49042A08BF46
:105810000B46DAE7094BD8E7F4C70000CED000000A
:105820000301030363D10000B0D0000019D10000D0
:105830003DD10000B5D00000C7D00000ABD00000C3
:105840004FF08053D3F83021082A06D1D3F83431F1
:10585000052B02D8024AD05C70470020704700BF79
:105860007BD10000024AD2F80034002BFBD07047F5
:1058700000E0014010B54FF08053D3F83021082AE2
:105880004ED14FF080420021C2F80C11C2F8101125
:10589000C2F8381502F54042D3F80414C2F82015B6
:1058A000D3F80814C2F82415D3F80C14C2F828153C
:1058B000D3F81014C2F82C15D3F81414C2F830150C
:1058C000D3F81814C2F83415D3F81C14C2F84015D4
:1058D000D3F82014C2F84415D3F82414C2F848159C
:1058E000D3F82814C2F84C15D3F82C14C2F850156C
:1058F000D3F83014C2F85415D3F83414C2F8601534
:10590000D3F83814C2F86415D3F83C14C2F86815FB
:10591000D3F84014C2F86C15D3F84434C2F870358B
:10592000FFF78EFF18B1414B414AC3F88C26FFF7B1
:1059300087FF18B13F4BFB22C3F81825FFF780FF04
:1059400070B14FF080414FF08053D1F8E42ED3F87E
:10595000583222F00F0203F00F031343C1F8E43E64
:10596000FFF76EFF20B1344B4FF40072C3F84026AE
:105970004FF08053D3F83031082B09D14FF08043DA
:10598000D3F80024D20744BF6FF00102C3F800240B
:105990002A4AD2F8883043F47003C2F88830BFF343
:1059A0004F8FBFF36F8F4FF08053D3F83021082A09
:1059B0000ED1D3F83431052B02D8214AD35C3BB148
:1059C0004FF01023D3F808224FF08043C3F8582536
:1059D0004FF01023D3F80022002A03DBD3F804325F
:1059E000002B22DA174901234FF01020C1F80435AB
:1059F0001224FFF737FFC0F80042FFF733FFC0F86B
:105A00000442FFF72FFF0023C1F80435FFF72AFFF8
:105A1000BFF34F8F09490C4BCA6802F4E06213438D
:105A2000CB60BFF34F8F00BFFDE710BD00500040BB
:105A30004881030000F000400090024000ED00E0CB
:105A400075D1000000E001400400FA0530B504689B
:105A5000CCB1BFF35B8FB4FA84F3C3F11F03DBB2A5
:105A600001229A4024EA020250E8005FA54204D1D4
:105A700040E8002CBCF1000FF6D1BFF35B8FE6D1FC
:105A800002480B7030BD0248FCE700BF0000AD0BC0
:105A90000200AD0B10B50368CB40DB0714D4012323
:105AA0008B400268BFF35B8F43EA020150E8004F6E
:105AB000944204D140E8001CBCF1000FF6D1BFF3C2
:105AC0005B8FEED1014810BD0148FCE70000AD0B33
:105AD0000400AD0B014BC3F80405704700F0014012
