:10E2000000F50020AD96020093500500999602009B
:10E21000999602009996020099960200000000006B
:10E22000000000000000000000000000299802002B
:10E230009996020000000000C5970200999602001E
:10E24000F1990200D5910500F1990200F1990200BF
:10E25000F1990200F1990200F1990200F19902008E
:10E26000EB910500F1990200F1990200BF910500C0
:10E27000F1990200F1990200F1990200F19902006E
:10E28000F1990200F1990200F1990200F19902005E
:10E29000F1990200F1990200F1990200F19902004E
:10E2A000F1990200F1990200F1990200F19902003E
:10E2B000F1990200F1990200F1990200F19902002E
:10E2C000F1990200F1990200F1990200F19902001E
:10E2D000F1990200F1990200F1990200F19902000E
:10E2E000F1990200F1990200F1990200F1990200FE
:10E2F000F1990200F1990200F1990200F1990200EE
:10E3000080EA101404F0F01480EA0410604081EAFE
:10E31000111404F0F01481EA0411614082EA12142D
:10E3200004F0F01482EA0412624083EA131404F049
:10E33000F01483EA0413634080EA102404F47F4459
:10E3400080EA0420604081EA112404F47F4481EAD9
:10E350000421614082EA122404F47F4482EA042208
:10E36000624083EA132404F47F4483EA0423634075
:10E3700081EA500404F0553480EA4400614083EAA5
:10E38000520404F0553482EA4402634082EA900465
:10E3900004F0333480EA8400624083EA910404F09C
:10E3A000333481EA84016340704700BF82EA9004FD
:10E3B00004F0333480EA8400624083EA910404F07C
:10E3C000333481EA8401634081EA500404F0553417
:10E3D00080EA4400614083EA520404F0553482EA42
:10E3E0004402634080EA102404F47F4480EA04205D
:10E3F000604081EA112404F47F4481EA04216140F1
:10E4000082EA122404F47F4482EA0422624083EA0E
:10E41000132404F47F4483EA0423634080EA101445
:10E4200004F0F01480EA0410604081EA111404F052
:10E43000F01481EA0411614082EA121404F0F0142D
:10E4400082EA0412624083EA131404F0F01483EAAF
:10E4500004136340704700BF2DE9F14F94464FEA23
:10E46000930B8A68CB6808684968FFF749FF0BF18E
:10E47000060E33E083EA134480EA134582EA134729
:10E4800046BA96EA3444604000F00F1684EA063437
:10E4900020F00F1684EA161054BA94EA010672406E
:10E4A00002F00F1486EA043622F00F1486EA1412E2
:10E4B0004CBA6540694001F00F1485EA043521F03B
:10E4C0000F1485EA14115CBA67407B4003F00F1407
:10E4D00087EA043723F00F1487EA1413BCE8F0002E
:10E4E0006040694072407B4000F0E03400F010353D
:10E4F00000F00F3040EA540040EAC50080EA900482
:10E5000004F0332480EA8400604001F0E03401F03C
:10E51000103501F00F3141EA540141EAC50181EAA9
:10E52000910404F0332481EA8401614002F0E03474
:10E5300002F0103502F00F3242EA540242EAC502FC
:10E5400082EA920404F0332482EA8402624003F0F7
:10E55000E03403F0103503F00F3343EA540343EA89
:10E56000C50383EA930404F0332483EA84036340FD
:10E5700081EA324787EA134581EA354690EA060484
:10E5800084EA034B82EA1B4280EA044484EA05449D
:10E5900083EA144A85EA14448BEA044B84EA37443C
:10E5A00081EA0B4181EA164104EA0A00454082EA09
:10E5B00004082BEA080041408AEA0B0602EA06003A
:10E5C00084EA34438AEA3A4603EA0607784045403B
:10E5D000414088EA38478BEA3B4007EA000985EA70
:10E5E000090583EA0709464006EA0906714085EAFB
:10E5F000010005EA3546464006EA314181EA3041EC
:10E6000081EA364606EA304686EA3546344008EA6C
:10E61000010886EA01052A4086EA364003405A404E
:10E6200081EA31431F407C4080EA030709EA070979
:10E6300088EA0908544088EA020806EA0A0601EA5C
:10E640000B018AEA0B0215408AEA3A421040454023
:10E650008BEA3B4003405E404240174079404D40CA
:10E660004E40E443F64386EA18435D4085EA0540A0
:10E6700083EA134386EA034183EA384284EA11437A
:10E6800083EA04435FEA3343BEF1010E3FF6F2AE84
:10E690001ED4BCE8F0006040694072407B4020BC62
:10E6A000FFF784FE28606960AA60EB60BDE8F08F28
:10E6B0002DE9E0414FF2F00280EA1031114080EA8A
:10E6C0000130484041088208C3084FF0000E4FE770
:10E6D00000F0113001F0113102F0113203F011336A
:10E6E00040EA410040EA820040EAC3004FF2F002F3
:10E6F00080EA1031114080EA01304840BDE8E081F5
:10E700002DE9F04F02F11C050646074600EB85088F
:10E7100051F8040B043A46F8040BF9D14FF0010C00
:10E72000FFF7C6FF5FEA302080EA0C001ECF4140B1
:10E730004A4053405C401EC62000464517D04FEA71
:10E740004C0C1CF4807F18BFACF1E50C2C2DE7D0ED
:10E750003C2D06D1FFF7ACFF06CF41404A4006C62C
:10E76000100006CF41404A4006C61000D8E736E9FF
:10E770000F00FFF7C5FD043D86E80F00F7D1BDE8A7
:10E78000F08F00BF2DE9F14F03F11C0402EB840C64
:10E790004FEA930B8A68CB6808684968FFF7B0FDB9
:10E7A0003CE9F0006040694072407B400BF1060E8E
:10E7B0004EE083EA134480EA134582EA134746BADF
:10E7C00096EA3444604000F00F1684EA063420F0E4
:10E7D0000F1684EA161054BA94EA0106724002F049
:10E7E0000F1486EA043622F00F1486EA14124CBA8B
:10E7F0006540694001F00F1485EA043521F00F14DB
:10E8000085EA14115CBA67407B4003F00F1487EA75
:10E81000043723F00F1487EA141344BA44404DBA66
:10E820004D4056BA56405FBA5F4087EA174886EABD
:10E83000174B84EA17464FEA38488BEA1B4485EAAF
:10E840001B4788EA1B4580EA3440694072407B40A0
:10E8500000F0703400F0803500F00F3040EA4400E2
:10E8600040EAD50080EA900404F0332480EA840072
:10E87000604001F0703401F0803501F00F3141EA61
:10E88000440141EAD50181EA910404F0332481EA8C
:10E890008401614002F0703402F0803502F00F32E2
:10E8A00042EA440242EAD50282EA920404F03324A6
:10E8B00082EA8402624003F0703403F0803503F092
:10E8C0000F3343EA440343EAD50383EA930404F095
:10E8D000332483EA84036340C943DB4381EA0004B1
:10E8E00083EA044686EA020183EA014382EA334569
:10E8F00083EA14435C4084EA00077FEA040A8AEA58
:10E90000024A8AEA010B87EA11488AEA374A80EA12
:10E91000060181EA1A418AEA030A04EA0A0045402C
:10E9200088EA040707EA0B0041408AEA0B0608EA76
:10E93000060084EA34428AEA3A4602EA060358406C
:10E940004540414087EA37438BEA3B4003EA0009F0
:10E9500085EA090582EA0309464006EA090671408C
:10E9600085EA010005EA3546464006EA314181EA7A
:10E97000304181EA364606EA304686EA354634407A
:10E980000F4086EA010508EA050886EA364002409B
:10E9900088EA020881EA314213405C4080EA0203BF
:10E9A00009EA030987EA0907674088EA040806EAD2
:10E9B0000A0601EA0B018AEA0B0425408AEA3A4476
:10E9C000204045408BEA3B4B02EA0B02564084EA6A
:10E9D0000B04234059406E40694087EA364080EA84
:10E9E000384080EA060380EA104481EA134585EA4C
:10E9F000344585EA17427D4082EA354180EA054088
:10EA00003CE9F0006040694072407B40BEF1010E7D
:10EA10003FF6CFAE20BCFFF7C9FC28606960AA6052
:10EA2000EB60BDE8F08F00BFFFF76ABE70B491E8FD
:10EA30007800B2E802105B1854EB0C04B2E8021044
:10EA40004D4156EB0C0680E878008041013070BCE7
:10EA5000704700BF70B491E87800B2E802105B1A0A
:10EA600074EB0C04B2E802108D4176EB0C0680E8E2
:10EA700078008041404270BC704700BF2DE9F0072C
:10EA800091E80017C0CAA8FB063440F8043BA9FB74
:10EA90000615E8FB6741EAFB665140F8044BA9FB09
:10EAA0000743ECFB661344CAE8FB6254EAFB6714B5
:10EAB000ECFB673440F8045BA9FB0275EAFB6235A6
:10EAC000ECFB6245E8FB6617E9FB6637EAFB664745
:10EAD000ECFB6657BAC0BDE8F00770472DE9F003BC
:10EAE00091E8F801B2E802125B1854EB090455EB07
:10EAF0000C05B2E802124E4157EB090758EB0C081F
:10EB000080E8F80180410130BDE8F003704700BFA4
:10EB10002DE9F00391E8F801B2E802125B1A74EBF8
:10EB2000090475EB0C05B2E802128E4177EB090778
:10EB300078EB0C0880E8F80180414042BDE8F00322
:10EB4000704700BF2DE9F001524290E83800B1E86B
:10EB5000C00116409B1917407C4118EA020855EB8A
:10EB6000080538C090E8380091E8C00116407341AC
:10EB700017407C4118EA020855EB080538C080416F
:10EB80000130BDE8F00170472DE9F001524290E8F4
:10EB90003800B1E8C00116409B1B1740BC4118EA81
:10EBA000020875EB080538C090E8380091E8C0010C
:10EBB0001640B3411740BC4118EA020875EB08053E
:10EBC00038C080414042BDE8F00170472DE9F001B6
:10EBD00052424FF0030890E8300091E8C000A31BB8
:10EBE0001340E41AF618EB1B1340ED1AFF1830C05F
:10EBF000C0C1B8F10108EED1BDE8F001704700BF17
:10EC000092E8F0032DE9F003B1E8001E06C906B44E
:10EC1000A9FB04120891AAFB0403E9FB6520EBFBA6
:10EC200064300992AAFB0521ECFB6401E9FB663222
:10EC3000EAFB6602EBFB66120A93A9FB0743EAFBB9
:10EC40006713EBFB6723EBFB6504ECFB6514EAFB46
:10EC50006824EBFB6834A9FB0865DDF81C80E9FB40
:10EC60006825EAFB6835EBFB6845BDE8000EE9FB6B
:10EC70006B16EAFB6B26ECFB6736E9FB6746EAFBA3
:10EC800067565DF804BBA9FB0B87EAFB6B37DDF821
:10EC900008B0ECFB6B47E9FB6B57EAFB6B675DF871
:10ECA00004BBECFB6B28E9FB6B38EAFB6B4802B05A
:10ECB0005DF804BBECFB6B58E9FB6B68EAFB6B7817
:10ECC000704700BF2DE9F14F83B0FFF799FFDDF8E2
:10ECD0000C9009F10C0989E8FF010FBC83E80700DB
:10ECE000BDE8F08F91E8801FA7FB07120091A8FBF9
:10ECF0000703E7FB6820E7FB69300192A7FB0921C6
:10ED0000E7FB6A01E8FB6832E7FB6A02E7FB6B128C
:10ED10000293A8FB0943E7FB6B13E7FB6C23E8FBBB
:10ED20006904E8FB6A14E7FB6C24E8FB6C34A8FB7D
:10ED30000A65E8FB6B25E8FB6C35E9FB6C45E9FBF4
:10ED40006916E8FB6B26E9FB6B36E9FB6C46EAFBD0
:10ED50006C56A9FB0A87E9FB6B37EAFB6B47EAFBBA
:10ED60006C57EBFB6C67E9FB6A28EAFB6A38EAFB45
:10ED70006B48EBFB6B58EBFB6C68ECFB6C787047FB
:10ED80002DE9F14F83B0FFF7ADFFDDF80C9009F1ED
:10ED90000C0989E8FF010FBC83E80700BDE8F08F8C
:10EDA0002DE9F00391E8F803B2E802105B1854EB88
:10EDB0000C04B2E802104D4156EB0C0692E8061026
:10EDC0004F4158EB020859EB0C0980E8F8038041E9
:10EDD0000130BDE8F00370472DE9F00391E8F80336
:10EDE000B2E802105B1A74EB0C04B2E802108D4119
:10EDF00076EB0C0692E806108F4178EB020879EB6F
:10EE00000C0980E8F80380414042BDE8F0037047F8
:10EE10002DE9F003524290E83800B1E88003174032
:10EE2000DB1918EA020854EB080419EA020955EB49
:10EE3000090538C090E8780091E8820311404B4101
:10EE400017407C4118EA020855EB080519EA020947
:10EE500056EB090678C080410130BDE8F0037047E9
:10EE60002DE9F003524290E83800B1E880031740E2
:10EE7000DB1B18EA020874EB080419EA020975EBB7
:10EE8000090538C090E8780091E8820311408B4171
:10EE90001740BC4118EA020875EB080519EA020997
:10EEA00076EB090678C080414042BDE8F003704728
:10EEB0002DE9F00152424FF0030890E8300091E84C
:10EEC000C000A31B1340E41AF618EB1B1340ED1A05
:10EED000FF1830C0C0C1B8F10108EED104680E6857
:10EEE000A31B1340E41AF61804600E60BDE8F0019D
:10EEF000704700BF00B592E8C40F2DE9C40FB1E818
:10EF0000005E02B4A9FB02500995AAFB0234E9FB9A
:10EF10006603EBFB62430A90AAFB0605ECFB623535
:10EF2000E9FB6740E9FB6830EEFB62500B94AAFBFB
:10EF30000721EAFB6851EBFB6801DDF81480EBFB6D
:10EF40006632ECFB6652EAFB6802EBFB68120C933C
:10EF5000A9FB0843DDF81880E9FB6803EAFB6813A6
:10EF6000EBFB6823EBFB6754EEFB6604DDF81C80CB
:10EF7000E9FB6814EAFB6824EBFB68340D955DF847
:10EF8000049B99E8000CACFB0765DDF80C90ECFBEA
:10EF90006915EEFB6925EAFB6935EBFB6945DDF890
:10EFA0000090EAFB6906EBFB6916DDF81090ECFBBC
:10EFB0006926EEFB6936EAFB6946EBFB6956DDF82C
:10EFC0000490AAFB0987EBFB6927DDF81490ECFBA2
:10EFD0006937EEFB6947EAFB6957EBFB6967DDF8C8
:10EFE0000890EEFB6918EAFB6928EBFB6938DDF84D
:10EFF0001890ECFB6948EEFB6958EAFB6968EBFB8B
:10F00000697807B000BD00BF2DE9F14F85B0FFF76B
:10F0100071FFDDF8149009F1140989E8FF013FBC84
:10F0200085E81F00BDE8F08F00B591E8805FA7FB81
:10F0300007500195A7FB0834E7FB6803E7FB69432A
:10F040000290A7FB0905E7FB6A35E8FB6840E7FB90
:10F050006A30E7FB6B500394A8FB0921E7FB6B5177
:10F06000E7FB6C01E8FB6932E8FB6A52E7FB6C02E4
:10F07000E7FB6E120493A8FB0A43E8FB6B03E7FB74
:10F080006E13E8FB6E23E9FB6954E8FB6B04E8FBB5
:10F090006C14E8FB6E24E9FB6E340595A9FB0A6548
:10F0A000E8FB6C15E9FB6C25E9FB6E35EAFB6E4568
:10F0B000E9FB6A06E9FB6B16E9FB6C26EAFB6C369A
:10F0C000EAFB6E46EBFB6E56A9FB0B87EAFB6B2750
:10F0D000EAFB6C37EBFB6C47EBFB6E57ECFB6E67A8
:10F0E000EAFB6A18EAFB6B28EBFB6B38EBFB6C481E
:10F0F000ECFB6C58ECFB6E68EEFB6E7800BD00BF5D
:10F100002DE9F14F85B0FFF78FFFDDF8149009F17D
:10F11000140989E8FF013FBC85E81F00BDE8F08FB6
:10F120002DE9F00791E8F807B2E802105B1854EBFC
:10F130000C04B2E802104D4156EB0C06B2E8021086
:10F140004F4158EB0C08B2E8021059EB01095AEB99
:10F150000C0A80E8F80780410130BDE8F0077047ED
:10F160002DE9F00791E8F807B2E802105B1A74EB9A
:10F170000C04B2E802108D4176EB0C06B2E80210E6
:10F180008F4178EB0C08B2E8021079EB01097AEBB9
:10F190000C0A80E8F80780414042BDE8F00770475C
:10F1A0002DE9F007524290E87800B1E88007174057
:10F1B000DB1918EA020854EB080419EA020955EBB6
:10F1C00009051AEA020A56EB0A0678C090E87800A8
:10F1D000B1E8800717407B4118EA020854EB0804A5
:10F1E00019EA020955EB09051AEA020A56EB0A0662
:10F1F00078C080410130BDE8F00770472DE9F00785
:10F20000524290E87800B1E880071740DB1B18EA0B
:10F21000020874EB080419EA020975EB09051AEAF9
:10F22000020A76EB0A0678C090E87800B1E8800719
:10F230001740BB4118EA020874EB080419EA0209F6
:10F2400075EB09051AEA020A76EB0A0678C08041D6
:10F250004042BDE8F00770472DE9F00152424FF0FF
:10F26000040890E8300091E8C000A31B1340E41AA2
:10F27000F618EB1B1340ED1AFF1830C0C0C1B8F1EF
:10F280000108EED1BDE8F001704700BF00B592E87B
:10F29000DC072DE9DC07B1E8805702B4A7FB025177
:10F2A0000A95A8FB020BE7FB6310E9FB62B00B9128
:10F2B000A8FB0351EAFB6201E7FB64B5E7FB6605C7
:10F2C000E8FB6615CDF830B0A9FB03B6EAFB631680
:10F2D000ECFB6356E8FB640BE9FB641BEAFB645B35
:10F2E000ECFB646B0D90ACFB0230059CEEFB6250B6
:10F2F000E9FB6460EAFB64B0E7FB6431E8FB64515E
:10F30000069CE8FB6461E9FB64B1EAFB64010E93CF
:10F31000A7FB0432079CE7FB6462E8FB64B2E9FBED
:10F320006402EAFB6412049CE9FB6453EAFB646335
:10F33000089CE7FB64B3E8FB6403E9FB6413EAFBA6
:10F3400064230F955DF8049B99E80006DDF80080C2
:10F35000A9FB0854EAFB68B4DDF81080ECFB6804F4
:10F36000EEFB6814E9FB6824EAFB6834DDF80480EE
:10F37000EEFB6865E9FB68B5EAFB6805DDF814801B
:10F38000ECFB6815EEFB6825E9FB6835EAFB684590
:10F390000F96DDF80880AEFB0876E9FB6806EAFB0D
:10F3A0006816DDF81880ECFB6826EEFB6836E9FB92
:10F3B0006846EAFB6856DDF80C80ECFB68B7EEFBAC
:10F3C0006807E9FB6817EAFB6827DDF81C80ECFB9F
:10F3D0006837EEFB6847E9FB6857EAFB686708B0E7
:10F3E00000BD00BF2DE9F14F87B0FFF74FFFDDF8FB
:10F3F0001C8008F1200888E8FF00FFBC87E87F0830
:10F40000BDE8F08F00B591E89857A3FB0352019532
:10F41000A3FB0401E3FB6420E3FB67100292A3FB60
:10F420000752E3FB6802E4FB6415E3FB6805E3FBBA
:10F4300069250391A4FB07B6E3FB6926E3FB6A5643
:10F44000E4FB670BE4FB682BE3FB6A5BE3FB6C6BA1
:10F450000490A4FB0810E4FB6950E3FB6C60E3FB41
:10F460006EB0E7FB6721E4FB6951E4FB6A61E3FBF3
:10F470006EB1E4FB6E010592A7FB0832E4FB6A6201
:10F48000E4FB6CB2E4FB6E02E7FB6E12E7FB685331
:10F49000E7FB6963E4FB6CB3E7FB6C03E7FB6E130C
:10F4A000E8FB6E230695A7FB0954E7FB6AB4E7FB6C
:10F4B0006C04E8FB6C14E8FB6E24E9FB6E34E8FB9B
:10F4C0006865E7FB6AB5E8FB6A05E8FB6C15E9FBD4
:10F4D0006C25E9FB6E35EAFB6E450796A8FB0976BD
:10F4E000E8FB6A06E9FB6A16E9FB6C26EAFB6C3668
:10F4F000EAFB6E46ECFB6E56E8FB69B7E9FB690771
:10F50000E9FB6A17EAFB6A27EAFB6C37ECFB6C47FE
:10F51000ECFB6E57EEFB6E6700BD00BF2DE9F14FAF
:10F5200087B0FFF76FFFDDF81C8008F1200888E83E
:10F53000FF00FFBC87E87F08BDE8F08F2DE9F00FE2
:10F54000B1E8F801B2E8001E13EB090354EB0A041A
:10F5500055EB0B0556EB0C06B2E8001E57EB0907FE
:10F5600058EB0A08A0E8F80191E8F80153EB0B0307
:10F5700054EB0C0492E8001E55EB090556EB0A0605
:10F5800057EB0B0758EB0C0880E8F801804101307D
:10F59000BDE8F00F704700BF2DE9F00FB1E8F801AA
:10F5A000B2E8001EB3EB090374EB0A0475EB0B051C
:10F5B00076EB0C06B2E8001E77EB090778EB0A0839
:10F5C000A0E8F80191E8F80173EB0B0374EB0C046D
:10F5D00092E8001E75EB090576EB0A0677EB0B0740
:10F5E00078EB0C0880E8F80180414042BDE8F00F5C
:10F5F000704700BF2DE9F007524290E87800B1E86B
:10F6000080071740DB1918EA020854EB080419EACE
:10F61000020955EB09051AEA020A56EB0A0678C0F8
:10F6200090E87800B1E8800717407B4118EA0208AB
:10F6300054EB080419EA020955EB09051AEA020A13
:10F6400056EB0A0678C090E87800B1E880071740CA
:10F650007B4118EA020854EB080419EA020955EB49
:10F6600009051AEA020A56EB0A0678C08041013001
:10F67000BDE8F007704700BF2DE9F007524290E85F
:10F680007800B1E880071740DB1B18EA020874EB2A
:10F69000080419EA020975EB09051AEA020A76EB71
:10F6A0000A0678C090E87800B1E880071740BB41AF
:10F6B00018EA020874EB080419EA020975EB090557
:10F6C0001AEA020A76EB0A0678C090E87800B1E8F8
:10F6D00080071740BB4118EA020874EB080419EAD6
:10F6E000020975EB09051AEA020A76EB0A0678C0E8
:10F6F00080414042BDE8F007704700BF2DE9F001AE
:10F7000052424FF0060890E8300091E8C000A31B79
:10F710001340E41AF618EB1B1340ED1AFF1830C023
:10F72000C0C1B8F10108EED1BDE8F001704700BFDB
:10F7300003B5B2E8005E92E8FC012DE9FC012DE979
:10F74000005E0FC9A0FB0967A1FB0958E0FB6A75C1
:10F75000E2FB69850C9CC4E90067A1FB0A76E3FB28
:10F760006956E0FB6B87E1FB6B57E2FB6B67C4F804
:10F770000880A0FB0C98E1FB6C68E2FB6C78E2FB74
:10F780006A59E3FB6A69E1FB6E79E2FB6E89E56029
:10F79000A0FB0EBADDF814E0E0FB6E7AE1FB6E8AA6
:10F7A000E2FB6E9A0D9CD4E90445DDF800E0E4FB31
:10F7B0006E6BE5FB6E7BE3FB6C8BE4FB6C9BE5FB0C
:10F7C0006CABDDF830E0CEF81060019EA4FB06ECD7
:10F7D000E5FB668C049EE3FB669CE4FB66ACE5FB04
:10F7E00066BC029EE3FB667EE4FB668EE5FB669EDE
:10F7F000059EE3FB66AEE4FB66BEE5FB66CE0C9CB5
:10F8000004F1140484E8805F06AD95E8E003A0FBF2
:10F8100005CEA1FB05BAE0FB66EBE2FB65AB2DE98B
:10F820000050A1FB06ECE3FB65BCE0FB67AEE1FB2F
:10F8300067BEE2FB67CEA0FB0854E1FB68C4E2FBB5
:10F8400068E4E2FB66B5E3FB66C5E1FB69E5E2FB64
:10F850006945A0FB0976DDF83490E0FB69E6E1FB41
:10F860006946E2FB69560F9AD2E90412DDF820904E
:10F87000E1FB69C7E2FB69E7E3FB6847E1FB685727
:10F88000E2FB68670998A1FB0098E2FB60480C98CE
:10F89000E3FB6058E1FB6068E2FB60780A98E3FBF9
:10F8A00060E9E1FB6049E2FB60590D98E3FB6069A8
:10F8B000E1FB6079E2FB60890E9800F1300181E89C
:10F8C000F0038769BDE800030D9800F118003FC8F8
:10F8D000009EE0FB6687E1FB6697E2FB66A7E3FB21
:10F8E00066B7E4FB66C7E5FB66E70C9EC6F81880C2
:10F8F000D6F81C80019EE0FB6698E1FB66A8E2FB5F
:10F9000066B8E3FB66C8E4FB66E8E5FB66780C9E38
:10F91000C6F81C90D6F82090029EE0FB66A9E1FB99
:10F9200066B9E2FB66C9E3FB66E9E4FB6679E5FBE1
:10F9300066890C9EC6F820A0D6F824A0039EE0FBA2
:10F9400066BAE1FB66CAE2FB66EAE3FB667AE4FBC1
:10F95000668AE5FB669A0C9EC6F824B0D6F828B0F5
:10F96000049EE0FB66CBE1FB66EBE2FB667BE3FB20
:10F97000668BE4FB669BE5FB66AB0C9EC6F828C075
:10F98000D6F82CC0059EE0FB66ECE1FB667CE2FB52
:10F99000668CE3FB669CE4FB66ACE5FB66BC0C9EF8
:10F9A000C6F82CE0366BDDF818E0E0FB6E76E1FB84
:10F9B0006E86E2FB6E96E3FB6EA6E4FB6EB6E5FB9D
:10F9C0006EC6DDF830E0CEF83070DEF83470DDF869
:10F9D0001CE0E0FB6E87E1FB6E97E2FB6EA7E3FBAA
:10F9E0006EB7E4FB6EC7E5FB6E67DDF830E0CEF87E
:10F9F0003480DEF83880DDF820E0E0FB6E98E1FB33
:10FA00006EA8E2FB6EB8E3FB6EC8E4FB6E68E5FB34
:10FA10006E78DDF830E0CEF83890DEF83C90DDF816
:10FA200024E0E0FB6EA9E1FB6EB9E2FB6EC9E3FBEB
:10FA30006E69E4FB6E79E5FB6E89DDF830E0CEF8A7
:10FA40003CA0DEF840A0DDF828E0E0FB6EBAE1FB68
:10FA50006ECAE2FB6E6AE3FB6E7AE4FB6E8AE5FB3C
:10FA60006E9ADDF830E0CEF840B0DEF844B0DDF854
:10FA70002CE0E0FB6ECBE1FB6E6BE2FB6E7BE3FB0D
:10FA80006E8BE4FB6E9BE5FB6EAB0C98C0F844C03C
:10FA90000EB000BD2DE9F14FFFF74AFE5DF804CB33
:10FAA0000CF1480C8CE8C00FBDE8F08F01B591E86F
:10FAB000FF0F2DE9FF0FA0FB0089A1FB00BAE0FBBF
:10FAC000619BE2FB60AB0C9EE6E80289A1FB017C36
:10FAD000E3FB60BCE0FB62A7E1FB62B7E2FB62C74D
:10FAE000A0FB0398E1FB63C8E2FB6378E2FB61B92A
:10FAF000E3FB61C9E1FB6479E2FB6489E6E802AB00
:10FB0000A0FB04BAE0FB657AE1FB658AE2FB659A3B
:10FB1000E4FB60CBE5FB607BE3FB638BE4FB639B77
:10FB2000E5FB63AB46F804CBA4FB01ECE5FB618C81
:10FB3000E3FB649CE4FB64ACE5FB64BCE3FB627E3A
:10FB4000E4FB628EE5FB629EE3FB65AEE4FB65BE13
:10FB5000E5FB65CE86E8805F06AD95E8E003A0FB97
:10FB600005CEA1FB05BAE0FB66EBE2FB65AB2DE938
:10FB70000050A1FB06ECE3FB65BCE0FB67AEE1FBDC
:10FB800067BEE2FB67CEA0FB0854E1FB68C4E2FB62
:10FB900068E4E2FB66B5E3FB66C5E1FB69E5E2FB11
:10FBA0006945A0FB0976DDF83490E0FB69E6E1FBEE
:10FBB0006946E2FB6956DDE906120898E1FB60C779
:10FBC000E2FB60E7E3FB6847E1FB6857E2FB68673D
:10FBD0000998A1FB0098E2FB60480C98E3FB605891
:10FBE000E1FB6068E2FB60780A98E3FB60E9E1FB17
:10FBF0006049E2FB60590D98E3FB6069E1FB6079C5
:10FC0000E2FB60890E9800F1300181E8F00387691A
:10FC1000BDE8000306A83FC8009EE0FB6687E1FB45
:10FC20006697E2FB66A7E3FB66B7E4FB66C7E5FB06
:10FC300066E70C9EC6F81880D6F81C80019EE0FB93
:10FC40006698E1FB66A8E2FB66B8E3FB66C8E4FBE6
:10FC500066E8E5FB66780C9EC6F81C90D6F8209006
:10FC6000029EE0FB66A9E1FB66B9E2FB66C9E3FB25
:10FC700066E9E4FB6679E5FB66890C9EC6F820A080
:10FC8000D6F824A0039EE0FB66BAE1FB66CAE2FB5D
:10FC900066EAE3FB667AE4FB668AE5FB669A0C9EFD
:10FCA000C6F824B0D6F828B0049EE0FB66CBE1FB92
:10FCB00066EBE2FB667BE3FB668BE4FB669BE5FBA6
:10FCC00066AB0C9EC6F828C0D6F82CC0059EE0FB9B
:10FCD00066ECE1FB667CE2FB668CE3FB669CE4FB86
:10FCE00066ACE5FB66BC0C9EC6F82CE0366BE0FB10
:10FCF0006076E1FB6086E2FB6096E3FB60A6E4FBD6
:10FD000060B6E5FB60C6DDF830E0CEF83070DEF8B6
:10FD10003470E0FB6187E1FB6197E2FB61A7E3FBE5
:10FD200061B7E4FB61C7E5FB6167CEF83480DEF8BC
:10FD30003880E0FB6298E1FB62A8E2FB62B8E3FB7B
:10FD400062C8E4FB6268E5FB6278CEF83890DEF8C2
:10FD50003C90E0FB63A9E1FB63B9E2FB63C9E3FB11
:10FD60006369E4FB6379E5FB6389CEF83CA0DEF8C8
:10FD700040A0E0FB64BAE1FB64CAE2FB646AE3FB17
:10FD8000647AE4FB648AE5FB649ACEF840B0DEF85E
:10FD900044B0E0FB65CBE1FB656BE2FB657BE3FB1D
:10FDA000658BE4FB659BE5FB65ABCEF844C00DB00D
:10FDB00000BD00BF2DE9F14FFFF778FE5DF804CBE1
:10FDC0000CF1480C8CE8C00FBDE8F08F2DE9F04F26
:10FDD000B0E8FE0783B02DE9010790E8005F4FF01F
:10FDE0000A0006900198DB199CEA030C18EB3C48CA
:10FDF00097EA080713EB375393EA3C4C18EB3C683F
:10FE000098EA375724189EEA040E19EB3E4990EA07
:10FE1000090014EB305494EA3E4E19EB3E6999EA1E
:10FE20003050CDE90489DDE9028949199AEA010ACD
:10FE300018EB3A4895EA080511EB355191EA3A4A30
:10FE400018EB3A6898EA355592199BEA020B19EBC0
:10FE50003B4996EA090612EB365292EA3B4B19EB04
:10FE60003B6999EA365613EB706393EA3B6B18EBE8
:10FE70003B4898EA706013EB305393EA3B4B5FEAE0
:10FE80003B6B18EB0B0898EA30505FEA706014EB9C
:10FE9000756494EA3C6C19EB3C4999EA756514EB7E
:10FEA000355494EA3C4C5FEA3C6C19EB0C0999EA36
:10FEB00035555FEA7565CDE90289DDE9048911EB05
:10FEC000766191EA3E6E18EB3E4898EA766611EB51
:10FED000365191EA3E4E5FEA3E6E18EB0E0898EA04
:10FEE00036565FEA766612EB776292EA3A6A19EB67
:10FEF0003A4999EA776712EB375292EA3A4A5FEA4F
:10FF00003A6A19EB0A0999EA37575FEA776701906D
:10FF1000069801387FF465AF01BC80E8005FBDE85A
:10FF2000000700E9FE0703B0BDE8F08F30B44FF0E2
:10FF3000000310F8014B11F8015B013A84EA050453
:10FF400043EA0403F5D1A3F101034FEAD37030BCB7
:10FF5000704700BF4FF0000310F8012B013943EA4E
:10FF60000203F9D1A3F101034FEAD370704700BF38
:10FF700030B411F8014B12F8015B6C4000F8014BF2
:10FF8000013BF6D130BC704702EAE3714FEA43000F
:10FF900002EAE07C9CEA4101404102EAE07C9CEA02
:10FFA0004101404102EAE07C9CEA4101404102EA11
:10FFB000E07C9CEA4101404102EAE07C9CEA41018C
:10FFC000404102EAE07C9CEA4101404102EAE07CD7
:10FFD0009CEA4101404102EAE07C9CEA4101404147
:10FFE00002EAE07C9CEA4101404102EAE07C9CEAB2
:10FFF0004101404102EAE07C9CEA4101404102EAC1
:020000021000EC
:10000000E07C9CEA4101404102EAE07C9CEA41013B
:10001000404102EAE07C9CEA4101404102EAE07C86
:100020009CEA4101404102EAE07C9CEA41014041F6
:1000300002EAE07C9CEA4101404102EAE07C9CEA61
:100040004101404102EAE07C9CEA4101404102EA70
:10005000E07C9CEA4101404102EAE07C9CEA4101EB
:10006000404102EAE07C9CEA4101404102EAE07C36
:100070009CEA4101404102EAE07C9CEA41014041A6
:1000800002EAE07C9CEA4101404102EAE07C9CEA11
:100090004101404102EAE07C9CEA4101404102EA20
:1000A000E07C9CEA4101404102EAE07C9CEA41019B
:1000B000404102EAE07C9CEA4101404102EAE07CE6
:1000C0009CEA410140414918404170472DE9F34FF6
:1000D000D0F80080D1F80090D0F804A0D1F804B096
:1000E00098FA88F899FA89F99AFA8AFA9BFA8BFBB6
:1000F00042464B46FFF748FF04000D0052465B4660
:10010000FFF742FF45400F0095EA0106654082EA8D
:10011000080283EA0903FFF737FF45404E4003BC5E
:1001200001B4F0B484688D68C668CF6824BA2DBA6B
:1001300036BA3FBA88EA040089EA05018AEA060A63
:100140008BEA070B03B422002B00FFF71DFF80464C
:10015000894632003B00FFF717FF89EA00090F00CC
:1001600089EA010689EA080962406B40FFF70CFF43
:1001700089EA000971403846FCBC4C4084EA5104CD
:1001800085EAC17584EA910485EA817584EAD1140F
:1001900085EA4165454085EA500586EAC07685EAEC
:1001A000900586EA807685EAD01586EA406688EA78
:1001B000060889EA070988EA040689EA0507FFF7BD
:1001C000E3FE464047404F4088EA010882EA0A02BF
:1001D00083EA0B03FFF7D8FE474088EA010852463E
:1001E0005B46FFF7D1FE474088EA000888EA01082D
:1001F00089EA010994EA080484EA580485EAC87582
:1002000084EA980485EA887584EAD81485EA486502
:1002100095EA090585EA590586EAC97685EA9905C8
:1002200086EA897685EAD91586EA496601BC24BA48
:1002300004602DBA456036BA86603FBAC760BDE833
:10024000F08F00BF30B4016842688368C46809BA9F
:1002500012BA1BBA24BACD1705F0870595EA4404F3
:100260005B415241494109BA016012BA42601BBA6E
:10027000836024BAC46030BC704700BF2DE9F0032E
:1002800091E8F803B2E802105B1854EB0C04B2E8F2
:1002900002104D4156EB0C0692E806104F4158EB08
:1002A000020859EB0C098941013B74F1000475F116
:1002B000000576F1FF3677F1FF3778F1FF3879F1F5
:1002C000FF3951F1000113EBD17354F1000455F1E2
:1002D00000054E414F4158EB010859EB010980E8F8
:1002E000F803BDE8F00370472DE9F00391E8F80347
:1002F000B2E802105B1A74EB0C04B2E802108D41F4
:1003000076EB0C0692E806108F4178EB020879EB49
:100310000C09894113EBD17354F1000455F1000528
:100320004E414F4158EB010859EB010980E8F803B1
:10033000BDE8F003704700BF2DE9F14F85B0FEF72F
:10034000D9FDDDE903ABBAEB05097BEB060AB84141
:1003500071EB080172F1000273F1000374F1000403
:100360006BEB0B0B491972417B4154EB08044BF1C9
:100370000005BDE8C001BEEB0E0E59EB02095AEBB9
:10038000030A604169415EF1000E96419F4178EB9E
:10039000040879EB05097AF1000A70F1000B71F19C
:1003A000000C6EF1010E16EBDE7657F1000758F1E6
:1003B000000859EB0E095AEB0E0A5BEB0E0B5CEBD7
:1003C0000E0C02B001BC80E8C01FBDE8F08F00BF7A
:1003D0002DE9F14F85B0FEF727FEB2E72DE9F007D2
:1003E00091E8F807B2E802105B1854EB0C04B2E88D
:1003F00002104D4156EB0C06B2E802104F4158EB8B
:100400000C08B2E8021059EB01095AEB0C0A8941B9
:10041000B3F1FF3374F1FF3475F1FF3576F1000667
:1004200077F1000778F1000879F101097AF1FF3AD4
:1004300051F100015B184C414D4156F1000657F156
:10044000000758F1000859EBD1795AEB010A80E80E
:10045000F807BDE8F00770472DE9F00791E8F807C5
:10046000B2E802105B1A74EB0C04B2E802108D4182
:1004700076EB0C06B2E802108F4178EB0C08B2E87C
:10048000021079EB01097AEB0C0A89415B184C41A7
:100490004D4156F1000657F1000758F1000859EB9D
:1004A000D1795AEB010A80E8F807BDE8F0077047F8
:1004B00018EB040859EB05095AEB060A5BEB070B2E
:1004C0005FF0000C4CF1000C18EB050859EB060925
:1004D0005AEB070A5BEB070B50EB0C005FF0000CCC
:1004E00051EB0C0152EB0C0263414CF1000CB8EBE8
:1004F000070879F100097AF1000A7BEB040BA841A7
:10050000B141A241B3416CF1000CBBEB050BB04112
:10051000B941AA41BB416CF1000C4CF001068CF0D2
:10052000020718EB060859EB6C095AEB6C0A7BEBD7
:100530006C0B70EB6C0471EB6C0572EB670653EBA4
:100540006C076CEB6C0C18EB0C0059EB0C015AEBC4
:100550000C025BF1000354F1000455F1000556EB69
:10056000DC7657EB0C0770472DE9F14F87B0FEF7AB
:100570008DFEDDF81080DDF81490DDF818A0FFF78F
:1005800097FFBDE8000FFFF793FF03B05DF8048B02
:1005900088E8FF00BDE8F08F2DE9F14F87B0FEF746
:1005A00031FFDDF81080DDF81490DDF818A0FFF7BA
:1005B0007FFFBDE8000FFFF77BFF03B05DF8048B02
:1005C00088E8FF00BDE8F08F2DE9F04FB1E8C003E7
:1005D000B2E83804F618674158EB050859EB0A09E8
:1005E0002DE9C003B1E8C003B2E838045E416741B9
:1005F00058EB050859EB0A0991E8005C3CCA5AEB34
:10060000020A5BEB030B5CEB040C5EEB050E89410D
:100610003CBCB2F1FF3273F1000374F1000475F1D8
:10062000FF3556F1010677F1FF3778F1FF3879F1A0
:10063000FF397AF1FF3A7BF1FF3B7CF1FF3C7EF121
:10064000FF3E51F10001521853F1000354F1000430
:100650004D4156EB41064F4158EB010859EB01095A
:100660005AEB010A5BEB010B5CEB010C5EEB010E3C
:1006700080E8FC5FBDE8F08F2DE9F04FB1E8C003E2
:10068000B2E83804F61AA74178EB050879EB0A09B5
:100690002DE9C003B1E8C003B2E838049E41A74188
:1006A00078EB050879EB0A0991E8005C3CCA7AEB23
:1006B000020A7BEB030B7CEB040C7EEB050E8941FD
:1006C0003CBC521853F1000354F100044D4156EB69
:1006D00041064F4158EB010859EB01095AEB010A59
:1006E0005BEB010B5CEB010C5EEB010E80E8FC5F49
:1006F000BDE8F08F8019794152EB080253EB0903F2
:1007000054EB0A0455EB0B054CF1000C9B197C4192
:1007100055EB08054CF1000CA4197D414CF1000C7F
:10072000891BBA4173EB080374EB090475EB0A05E6
:100730006CF1000CDDE90C6716EB0C064FEAEC7C63
:1007400057EB0C074CF1000C16EB080657EB0907AA
:100750004CF1000C16EB090657EB0A074CF1000CA4
:10076000B6EB0B06DDF8188077EB08076CF1000C90
:10077000DDE90E8918EB0C084FEAEC7C59EB0C090B
:100780004CF1000C18EB0A0859EB0B09DDF818A026
:100790004CEB0A0C18EB0B0859EB0A094CF1000C56
:1007A000DDE910AB1AEB0C0A5BF1000B704700BFE0
:1007B0002DE9F14F98B06846FEF7BAFF06A83FC88A
:1007C0004FF0000CCDF818C04FF0010CFFF792FF6E
:1007D0000DF1300C8CE83F004FF0000C4CF1000C98
:1007E0009DE83F00CDF818C0FFF784FF6CEB0C0CC0
:1007F00010EB0C0051F1000152F1000253EB0C031D
:1008000054EB4C0455EB0C0556EB0C0657EB0C0760
:1008100058EB0C0859EB0C095AEB0C0A5BEB0C0B70
:1008200018B05DF804CB8CE8FF0FBDE8F08F00BF77
:100830002DE9F14F98B06846FFF738F9BEE700BFE1
:100840002DE9F14FF8C892E8005E19EB03095AEB65
:10085000040A5BEB050B5CEB060C4EEB070E91E814
:10086000E001A9FB0502AAFB0543E9FB6624EAFBBC
:100870006634A9FB0765E9FB6845B1E80003EBFBBB
:100880006836ECFB6846EEFB6856ABFB0987ECFB71
:100890006957EEFB696791E80202EAFB6148EBFBEE
:1008A0006158ECFB6168EEFB61784FF00001EAFBF8
:1008B0000951EBFB6961ECFB6971EEFB69814FF457
:1008C000A03C4FEA154949EA06495FF0000AE9FBF6
:1008D0000C0A4FEA164646EA0746E6FB6C2A4FEA40
:1008E000174747EA0847E7FB6C3A4FEA184848EAD7
:1008F0000148E8FB6C4AADB25544AF0805F003056A
:1009000007EB8707C01952F1000153F1000254F1BF
:10091000000345F1000420BC1FC5BDE8F08F00BFF7
:1009200030B490E83C10511D53F1000154F1000126
:1009300055F100014CF100014FEA9101494201F0EB
:100940000501521853F1000354F1000455F100055C
:100950004CF1000C0CF0030C80E83C1030BC7047EC
:100960002DE9F04F90E8F00F00F140004FF0040E39
:1009700059E0F0B4826BC36B0468052524268759BF
:100980003C444FEA724787EAF24787EA92273C44A1
:1009900042684FEAF21787EAB24787EAD2073C4437
:1009A00040F8044B032D08BF6FF01B0687593A44EB
:1009B0004FEA734787EAF34787EA93273A44436845
:1009C0004FEAF31787EAB34787EAD3073A4440F878
:1009D000042B87593B444FEA744787EAF44787EA78
:1009E00094273B4444684FEAF41787EAB44787EA00
:1009F000D4073B4440F8043B013DC0D1A0F13C008A
:100A0000076A3C444FEA724787EAF24787EA92272F
:100A10003C4402684FEAF21787EAB24787EAD207F6
:100A20003C44C463F0BC4FF0020288EA781C8CEAB4
:100A3000F84C0BEBBC1C8AEA090303EA080383EABF
:100A40000A039C4450F8043B9C4451F8043B9C44EA
:100A5000674444EA050B0BEA060B04EA05034BEA7C
:100A6000030BE34484EAF42383EA34530BEBB30B24
:100A700087EA771C8CEAF74C0AEBBC1C89EA08036E
:100A800003EA070383EA09039C4450F8043B9C44AF
:100A900051F8043B9C4466444BEA040A0AEA050AFE
:100AA0000BEA04034AEA030AE2448BEAFB2383EAE3
:100AB0003B530AEBB30A86EA761C8CEAF64C09EB48
:100AC000BC1C88EA070303EA060383EA08039C4484
:100AD00050F8043B9C4451F8043B9C4465444AEA6A
:100AE0000B0909EA04090AEA0B0349EA0309E1448C
:100AF0008AEAFA2383EA3A5309EBB30985EA751CBB
:100B00008CEAF54C08EBBC1C87EA060303EA0503F4
:100B100083EA07039C4450F8043B9C4451F8043B8F
:100B20009C44644449EA0A0808EA0B0809EA0A03F3
:100B300048EA0308E04489EAF92383EA395308EBD9
:100B4000B30884EA741C8CEAF44C07EBBC1C86EAFC
:100B5000050303EA040383EA06039C4450F8043BBC
:100B60009C4451F8043B9C44E34448EA090707EAE3
:100B70000A0708EA090347EA0307674488EAF823F3
:100B800083EA385307EBB3078BEA7B1C8CEAFB4CF8
:100B900006EBBC1C85EA040303EA0B0383EA0503A6
:100BA0009C4450F8043B9C4451F8043B9C44E24470
:100BB00047EA080606EA090607EA080346EA0306C2
:100BC000664487EAF72383EA375306EBB3068AEADB
:100BD0007A1C8CEAFA4C05EBBC1C84EA0B0303EA92
:100BE0000A0383EA04039C4450F8043B9C4451F8F4
:100BF000043B9C44E14446EA070505EA080506EA89
:100C0000070345EA0305654486EAF62383EA36537B
:100C100005EBB30589EA791C8CEAF94C04EBBC1CA2
:100C20008BEA0A0303EA090383EA0B039C4450F8A6
:100C3000043B9C4451F8043B9C44E04445EA0604D0
:100C400004EA070405EA060344EA0304644485EA67
:100C5000F52383EA355304EBB304013A7FF4E5AEA0
:100C6000A0F14000BEF1010E7FF483AEA0F1400C74
:100C70009CE80F00001949199219DB19ACE80F0024
:100C80009CE80F004044494452445B44ACE80F00E8
:100C9000BDE8F08F2DE90050ACF1400288B0C3CA26
:100CA000CDE90001B2E80303CDE90201B2E8300C5E
:100CB000CDE90445B2E80350CDE9060184EAD460E9
:100CC00080EA451085EAD56181EA441180EA141072
:100CD00080EA057081EA151181EA04711CEB903CF1
:100CE0004EEB913E1CEB814C4EEB804EDDE9062332
:100CF00082EA0A0083EA0B01204029405040594013
:100D00001CEB000C5EEB010E0A980899D0E9004537
:100D10001CEB040C5EEB050ED1E900451CEB040C4A
:100D20005EEB050E18EB0C0859EB0E09D0E90245F5
:100D300012196B41D1E9024512196B41DDE90445F5
:100D40008AEA04008BEA050110EA080011EA0901A9
:100D500090EA0A0091EA0B0112184B4188EAD86028
:100D600080EA491089EAD96181EA481180EA1810BD
:100D700080EA097081EA191181EA087112EB903258
:100D800043EB913312EB814243EB8043CDE90623E1
:100D9000DDE90023DDE9024582EAD22080EA435002
:100DA00083EAD32181EA425180EA921080EA83608B
:100DB00081EA931181EA82611CEB107C4EEB117E7B
:100DC0001CEB011C4EEB001E82EA0601324001EAD8
:100DD000040050401CEB000C01EA0C00504083EA78
:100DE00007023B4012EA050159405EEB010E02EAA0
:100DF0000E015940DDE90623A4185D41CDE9024505
:100E000012184B418CEADC2080EA4E508EEADE213B
:100E100081EA4C5180EA9C1080EA8E6081EA9E1142
:100E200081EA8C6112EB107243EB117312EB011229
:100E300043EB0013CDE9062384EAD46080EA451031
:100E400085EAD56181EA441180EA141080EA0570D0
:100E500081EA151181EA04711AEB903A4BEB913B50
:100E60001AEB814A4BEB804BDDE9042382EA080050
:100E700083EA090120402940504059401AEB000AFA
:100E80005BEB010B0A980899D0E904451AEB040AB8
:100E90005BEB050BD1E904451AEB040A5BEB050B90
:100EA00016EB0A0657EB0B07D0E9064512196B4102
:100EB000D1E9064512196B41DDE9024588EA0400D3
:100EC00089EA05013040394090EA080091EA0901B9
:100ED00012184B4186EAD66080EA471087EAD7614C
:100EE00081EA461180EA161080EA077081EA17113C
:100EF00081EA067112EB903243EB913312EB81429F
:100F000043EB8043CDE90423DDE90623DDE9004519
:100F100082EAD22080EA435083EAD32181EA425117
:100F200080EA921080EA836081EA931181EA82610B
:100F30001AEB107A4BEB117B1AEB011A4BEB001BEF
:100F400082EA0C0112EA0C0201EA040050401AEB9A
:100F5000000A01EA0A00504083EA0E0213EA0E0377
:100F600012EA050159405BEB010B02EA0B01594003
:100F7000DDE90423A4185D41CDE9004512184B4179
:100F80008AEADA2080EA4B508BEADB2181EA4A5177
:100F900080EA9A1080EA8B6081EA9B1181EA8A617B
:100FA00012EB107243EB117312EB011243EB0013BF
:100FB000CDE9042384EAD46080EA451085EAD5614E
:100FC00081EA441180EA141080EA057081EA151163
:100FD00081EA047118EB903849EB913918EB81489C
:100FE00049EB8049DDE9022382EA060083EA070132
:100FF000204029405040594018EB000859EB0109A6
:101000000A980899D0E9084518EB040859EB050936
:10101000D1E9084518EB040859EB05091CEB080C4D
:101020005EEB090ED0E90A4512196B41D1E90A4578
:1010300012196B41DDE9004586EA040087EA0501E3
:1010400010EA0C0011EA0E017040794012184B4171
:101050008CEADC6080EA4E108EEADE6181EA4C1197
:1010600080EA1C1080EA0E7081EA1E1181EA0C7180
:1010700012EB903243EB913312EB814243EB80430E
:10108000CDE90223DDE90423DDE9064582EAD22029
:1010900080EA435083EAD32181EA425180EA9210E8
:1010A00080EA836081EA931181EA826118EB10780B
:1010B00049EB117918EB011849EB001982EA0A0192
:1010C00012EA0A0201EA0400504018EB000801EAA3
:1010D0000800504083EA0B0213EA0B0312EA0501F1
:1010E000594059EB010902EA09015940DDE902239F
:1010F000A4185D41CDE9064512184B4188EAD82075
:1011000080EA495089EAD92181EA485180EA981059
:1011100080EA896081EA991181EA886112EB107294
:1011200043EB117312EB011243EB0013CDE90223E1
:1011300084EAD46080EA451085EAD56181EA4411E9
:1011400080EA141080EA057081EA151181EA0471C1
:1011500016EB903647EB913716EB814647EB80470D
:10116000DDE9002382EA0C0083EA0E0120402940D9
:101170005040594036184F410A980899D0E90C451B
:1011800036196F41D1E90C4536196F411AEB060A41
:101190005BEB070BD0E90E4512196B41D1E90E4507
:1011A00012196B41DDE906458CEA04008EEA05015F
:1011B00010EA0A0011EA0B0190EA0C0091EA0E0114
:1011C00012184B418AEADA6080EA4B108BEADB6145
:1011D00081EA4A1180EA1A1080EA0B7081EA1B1139
:1011E00081EA0A7112EB903243EB913312EB8142A8
:1011F00043EB8043CDE90023DDE90223DDE904452B
:1012000082EAD22080EA435083EAD32181EA425124
:1012100080EA921080EA836081EA931181EA826118
:1012200016EB107647EB117716EB011647EB00171C
:1012300082EA080112EA080201EA04005040361866
:1012400001EA0600504083EA090213EA090312EAA0
:10125000050159404F4102EA07015940DDE90023E9
:10126000A4185D41CDE9044512184B4186EAD62009
:1012700080EA475087EAD72181EA465180EA9610F2
:1012800080EA876081EA971181EA866112EB107229
:1012900043EB117312EB011243EB0013CDE9002372
:1012A00084EAD46080EA451085EAD56181EA441178
:1012B00080EA141080EA057081EA151181EA047150
:1012C0001CEB903C4EEB913E1CEB814C4EEB804E68
:1012D000DDE9062382EA0A0083EA0B012040294067
:1012E000504059401CEB000C5EEB010E0A98089927
:1012F000D0E910451CEB040C5EEB050ED1E910455E
:101300001CEB040C5EEB050E18EB0C0859EB0E09F8
:10131000D0E9124512196B41D1E9124512196B41FE
:10132000DDE904458AEA04008BEA050110EA0800B9
:1013300011EA090190EA0A0091EA0B0112184B41E7
:1013400088EAD86080EA491089EAD96181EA4811BF
:1013500080EA181080EA097081EA191181EA08719F
:1013600012EB903243EB913312EB814243EB80431B
:10137000CDE90623DDE90023DDE9024582EAD2203A
:1013800080EA435083EAD32181EA425180EA9210F5
:1013900080EA836081EA931181EA82611CEB107C10
:1013A0004EEB117E1CEB011C4EEB001E82EA060187
:1013B000324001EA040050401CEB000C01EA0C0032
:1013C000504083EA07023B4012EA050159405EEBB8
:1013D000010E02EA0E015940DDE90623A4185D4121
:1013E000CDE9024512184B418CEADC2080EA4E50D0
:1013F0008EEADE2181EA4C5180EA9C1080EA8E6000
:1014000081EA9E1181EA8C6112EB107243EB117339
:1014100012EB011243EB0013CDE9062384EAD460FA
:1014200080EA451085EAD56181EA441180EA14100A
:1014300080EA057081EA151181EA04711AEB903A8D
:101440004BEB913B1AEB814A4BEB804BDDE90423DC
:1014500082EA080083EA09012040294050405940AF
:101460001AEB000A5BEB010B0A980899D0E91445C6
:101470001AEB040A5BEB050BD1E914451AEB040ADD
:101480005BEB050B16EB0A0657EB0B07D0E916458D
:1014900012196B41D1E9164512196B41DDE902457C
:1014A00088EA040089EA05013040394090EA0800E2
:1014B00091EA090112184B4186EAD66080EA47108A
:1014C00087EAD76181EA461180EA161080EA077040
:1014D00081EA171181EA067112EB903243EB9133E6
:1014E00012EB814243EB8043CDE90423DDE906237F
:1014F000DDE9004582EAD22080EA435083EAD32125
:1015000081EA425180EA921080EA836081EA931175
:1015100081EA82611AEB107A4BEB117B1AEB011A0C
:101520004BEB001B82EA0C0112EA0C0201EA0400F8
:1015300050401AEB000A01EA0A00504083EA0E020A
:1015400013EA0E0312EA050159405BEB010B02EAB4
:101550000B015940DDE90423A4185D41CDE90045A4
:1015600012184B418AEADA2080EA4B508BEADB21E1
:1015700081EA4A5180EA9A1080EA8B6081EA9B11E5
:1015800081EA8A6112EB107243EB117312EB0112C4
:1015900043EB0013CDE9042384EAD46080EA4510CC
:1015A00085EAD56181EA441180EA141080EA057069
:1015B00081EA151181EA047118EB903849EB9139F1
:1015C00018EB814849EB8049DDE9022382EA0600F5
:1015D00083EA0701204029405040594018EB000899
:1015E00059EB01090A980899D0E9184518EB040845
:1015F00059EB0509D1E9184518EB040859EB050921
:101600001CEB080C5EEB090ED0E91A4512196B4170
:10161000D1E91A4512196B41DDE9004586EA04005B
:1016200087EA050110EA0C0011EA0E0170407940CA
:1016300012184B418CEADC6080EA4E108EEADE61C3
:1016400081EA4C1180EA1C1080EA0E7081EA1E11BA
:1016500081EA0C7112EB903243EB913312EB814231
:1016600043EB8043CDE90223DDE90423DDE90645B0
:1016700082EAD22080EA435083EAD32181EA4251B0
:1016800080EA921080EA836081EA931181EA8261A4
:1016900018EB107849EB117918EB011849EB001998
:1016A00082EA0A0112EA0A0201EA0400504018EB39
:1016B000000801EA0800504083EA0B0213EA0B031A
:1016C00012EA0501594059EB010902EA09015940A2
:1016D000DDE90223A4185D41CDE9064512184B410E
:1016E00088EAD82080EA495089EAD92181EA48511C
:1016F00080EA981080EA896081EA991181EA88611C
:1017000012EB107243EB117312EB011243EB001357
:10171000CDE9022384EAD46080EA451085EAD561E8
:1017200081EA441180EA141080EA057081EA1511FB
:1017300081EA047116EB903647EB913716EB814640
:1017400047EB8047DDE9002382EA0C0083EA0E01C3
:10175000204029405040594036184F410A98089976
:10176000D0E91C4536196F41D1E91C4536196F4146
:101770001AEB060A5BEB070BD0E91E4512196B4109
:10178000D1E91E4512196B41DDE906458CEA0400DA
:101790008EEA050110EA0A0011EA0B0190EA0C003A
:1017A00091EA0E0112184B418AEADA6080EA4B1086
:1017B0008BEADB6181EA4A1180EA1A1080EA0B7039
:1017C00081EA1B1181EA0A7112EB903243EB9133EB
:1017D00012EB814243EB8043CDE90023DDE9022394
:1017E000DDE9044582EAD22080EA435083EAD3212E
:1017F00081EA425180EA921080EA836081EA931183
:1018000081EA826116EB107647EB117716EB011631
:1018100047EB001782EA080112EA080201EA040015
:101820005040361801EA0600504083EA090213EAE4
:10183000090312EA050159404F4102EA07015940E4
:10184000DDE90023A4185D41CDE9044512184B41A0
:1018500086EAD62080EA475087EAD72181EA4651B6
:1018600080EA961080EA876081EA971181EA8661B2
:1018700012EB107243EB117312EB011243EB0013E6
:10188000CDE900230A9880300A90089AA2F140021C
:101890001BBCC3C2A2E818031BBCA2E8030CA2E84D
:1018A0001850BDE8009000BF00B59CE8F00FDCE9DF
:1018B0001201DCE91C23241845EB01054FEA560E02
:1018C0008EEAC77E8EEA162E8EEA076E8EEAD61E46
:1018D0008EEA476E14EB0E044FEA570E8EEAC67E70
:1018E0008EEA172E8EEA066E8EEAD71E45EB0E059F
:1018F0004FEAD24E8EEA433E8EEAC20E8EEA537E05
:101900008EEA921E8EEA836E14EB0E044FEAD34EDB
:101910008EEA423E8EEAC30E8EEA527E8EEA931E15
:1019200045EB0E05DCE91401DCE91E23361847EB14
:1019300001074FEA580E8EEAC97E8EEA182E8EEA0B
:10194000096E8EEAD81E8EEA496E16EB0E064FEA35
:10195000590E8EEAC87E8EEA192E8EEA086E8EEA3D
:10196000D91E47EB0E074FEAD24E8EEA433E8EEA6F
:10197000C20E8EEA537E8EEA921E8EEA836E16EBBC
:101980000E064FEAD34E8EEA423E8EEAC30E8EEA30
:10199000527E8EEA931E47EB0E07DCE9160118EB28
:1019A000000849EB01094FEA5A0E8EEACB7E8EEA17
:1019B0001A2E8EEA0B6E8EEADA1E8EEA4B6E18EB4A
:1019C0000E084FEA5B0E8EEACA7E8EEA1B2E8EEA66
:1019D0000A6E8EEADB1E49EB0E094FEAD44E8EEA00
:1019E000453E8EEAC40E8EEA557E8EEA941E8EEA3D
:1019F000856E18EB0E084FEAD54E8EEA443E8EEA0D
:101A0000C50E8EEA547E8EEA951E49EB0E09DCE97E
:101A10001801DCE908231AEB000A4BEB010B4FEA33
:101A2000520E8EEAC37E8EEA122E8EEA036E8EEA84
:101A3000D21E8EEA436E1AEB0E0A4FEA530E8EEA5E
:101A4000C27E8EEA132E8EEA026E8EEAD31E4BEB16
:101A50000E0B4FEAD64E8EEA473E8EEAC60E8EEA4F
:101A6000577E8EEA961E8EEA876E1AEB0E0A4FEAB2
:101A7000D74E8EEA463E8EEAC70E8EEA567E8EEA34
:101A8000971E4BEB0E0BACE8F00FDCE91201DCE922
:101A90000267121843EB01034FEA560E8EEAC77E27
:101AA0008EEA162E8EEA076E8EEAD61E8EEA476EF4
:101AB00012EB0E024FEA570E8EEAC67E8EEA172E02
:101AC0008EEA066E8EEAD71E43EB0E034FEAD84E1F
:101AD0008EEA493E8EEAC80E8EEA597E8EEA981E3C
:101AE0008EEA896E12EB0E024FEAD94E8EEA483E1C
:101AF0008EEAC90E8EEA587E8EEA991E43EB0E03DB
:101B0000DCE91401DCE90489361847EB01074FEAE8
:101B1000580E8EEAC97E8EEA182E8EEA096E8EEA7B
:101B2000D81E8EEA496E16EB0E064FEA590E8EEA63
:101B3000C87E8EEA192E8EEA086E8EEAD91E47EB11
:101B40000E074FEADA4E8EEA4B3E8EEACA0E8EEA56
:101B50005B7E8EEA9A1E8EEA8B6E16EB0E064FEABD
:101B6000DB4E8EEA4A3E8EEACB0E8EEA5A7E8EEA33
:101B70009B1E47EB0E07DCE91601DCE906AB18EB10
:101B8000000849EB01094FEA5A0E8EEACB7E8EEA35
:101B90001A2E8EEA0B6E8EEADA1E8EEA4B6E18EB68
:101BA0000E084FEA5B0E8EEACA7E8EEA1B2E8EEA84
:101BB0000A6E8EEADB1E49EB0E094FEAD24E8EEA20
:101BC000433E8EEAC20E8EEA537E8EEA921E8EEA63
:101BD000836E18EB0E084FEAD34E8EEA423E8EEA31
:101BE000C30E8EEA527E8EEA931E49EB0E09DCE9A3
:101BF00008011AEB040A4BEB050B4FEA500E8EEA74
:101C0000C17E8EEA102E8EEA016E8EEAD01E8EEA1A
:101C1000416E1AEB0E0A4FEA510E8EEAC07E8EEA32
:101C2000112E8EEA006E8EEAD11E4BEB0E0B4FEAA0
:101C3000D64E8EEA473E8EEAC60E8EEA577E8EEA72
:101C4000961E8EEA876E1AEB0E0A4FEAD74E8EEA80
:101C5000463E8EEAC70E8EEA567E8EEA971E4BEB04
:101C60000E0BACE8CC0F5CE90E45DCE9026700190D
:101C700041EB05014FEA560E8EEAC77E8EEA162E1C
:101C80008EEA076E8EEAD61E8EEA476E10EB0E00C5
:101C90004FEA570E8EEAC67E8EEA172E8EEA066E41
:101CA0008EEAD71E41EB0E014FEAD84E8EEA493E2E
:101CB0008EEAC80E8EEA597E8EEA981E8EEA896EEA
:101CC00010EB0E004FEAD94E8EEA483E8EEAC90E5E
:101CD0008EEA587E8EEA991E41EB0E015CE90C45B6
:101CE000DCE90489361947EB05074FEA580E8EEAFE
:101CF000C97E8EEA182E8EEA096E8EEAD81E8EEA0A
:101D0000496E16EB0E064FEA590E8EEAC87E8EEA31
:101D1000192E8EEA086E8EEAD91E47EB0E074FEA9F
:101D2000DA4E8EEA4B3E8EEACA0E8EEA5B7E8EEA71
:101D30009A1E8EEA8B6E16EB0E064FEADB4E8EEA8B
:101D40004A3E8EEACB0E8EEA5A7E8EEA9B1E47EB07
:101D50000E075CE90A45DCE906AB18EB040849EB21
:101D600005094FEA5A0E8EEACB7E8EEA1A2E8EEACB
:101D70000B6E8EEADA1E8EEA4B6E18EB0E084FEAF7
:101D80005B0E8EEACA7E8EEA1B2E8EEA0A6E8EEA01
:101D9000DB1E49EB0E094FEAD04E8EEA413E8EEA39
:101DA000C00E8EEA517E8EEA901E8EEA816E18EB8E
:101DB0000E084FEAD14E8EEA403E8EEAC10E8EEA00
:101DC000507E8EEA911E49EB0E09DCE908451AEBBC
:101DD000020A4BEB030B4FEA540E8EEAC57E8EEAE5
:101DE000142E8EEA056E8EEAD41E8EEA456E1AEB2C
:101DF0000E0A4FEA550E8EEAC47E8EEA152E8EEA42
:101E0000046E8EEAD51E4BEB0E0B4FEAD64E8EEAD1
:101E1000473E8EEAC60E8EEA577E8EEA961E8EEA00
:101E2000876E1AEB0E0A4FEAD74E8EEA463E8EEACE
:101E3000C70E8EEA567E8EEA971E4BEB0E0BACE871
:101E4000C30F5CE90E23DCE90267A41845EB030528
:101E50004FEA560E8EEAC77E8EEA162E8EEA076E7F
:101E60008EEAD61E8EEA476E14EB0E044FEA570E2A
:101E70008EEAC67E8EEA172E8EEA066E8EEAD71E90
:101E800045EB0E054FEAD84E8EEA493E8EEAC80E63
:101E90008EEA597E8EEA981E8EEA896E14EB0E0445
:101EA0004FEAD94E8EEA483E8EEAC90E8EEA587E37
:101EB0008EEA991E45EB0E055CE90C23DCE90489EA
:101EC000B61847EB03074FEA580E8EEAC97E8EEA32
:101ED000182E8EEA096E8EEAD81E8EEA496E16EB2F
:101EE0000E064FEA590E8EEAC87E8EEA192E8EEA49
:101EF000086E8EEAD91E47EB0E074FEADA4E8EEADD
:101F00004B3E8EEACA0E8EEA5B7E8EEA9A1E8EEAFF
:101F10008B6E16EB0E064FEADB4E8EEA4A3E8EEAD9
:101F2000CB0E8EEA5A7E8EEA9B1E47EB0E075CE9CB
:101F30000A23DCE906AB18EB020849EB03094FEA78
:101F40005A0E8EEACB7E8EEA1A2E8EEA0B6E8EEA3F
:101F5000DA1E8EEA4B6E18EB0E084FEA5B0E8EEA25
:101F6000CA7E8EEA1B2E8EEA0A6E8EEADB1E49EBD3
:101F70000E094FEAD44E8EEA453E8EEAC40E8EEA32
:101F8000557E8EEA941E8EEA856E18EB0E084FEA97
:101F9000D54E8EEA443E8EEAC50E8EEA547E8EEA17
:101FA000951E49EB0E095CE918231AEB000A4BEB6E
:101FB000010B4FEA520E8EEAC37E8EEA122E8EEA93
:101FC000036E8EEAD21E8EEA436E1AEB0E0A4FEAB9
:101FD000530E8EEAC27E8EEA132E8EEA026E8EEACF
:101FE000D31E4BEB0E0B4FEAD64E8EEA473E8EEADF
:101FF000C60E8EEA577E8EEA961E8EEA876E1AEB22
:102000000E0A4FEAD74E8EEA463E8EEAC70E8EEA99
:10201000567E8EEA971E4BEB0E0B8CE8F00FACF160
:10202000600C00BD2DE9F24F00F1400CB0E8F8075C
:10203000ACE8F807B0E8F807ACE8F807FEF72AFEC6
:10204000FFF732FCFEF726FEFFF72EFCFEF722FE1E
:10205000FFF72AFCFEF71EFEFFF726FCFEF71AFE2E
:10206000ACF1800808F1400998E80F0CB9E8F0508D
:102070000019694192197B411AEB0C0A4BEB0E0BCC
:10208000A8E80F0C98E80F0CB9E8F0500019694166
:1020900092197B411AEB0C0A4BEB0E0BA8E80F0CC4
:1020A00098E80F0099E8F0000019694192197B4106
:1020B00088E80F00BDE8F88F064B074A5B7802609E
:1020C0004FF41C728280C371082200238271037254
:1020D000704700BF5013002049150200064B074A05
:1020E0009B7802604FF490728280C3710822FF23B4
:1020F00082710372704700BF50130020D11002009C
:10210000F8B5C41D002824F00704054614BF204676
:10211000002000F035FB071E02DA6FF00B00F8BD5F
:102120000DB9FC42F9D4294E3189F088F37AB27A9C
:102130000331033089B280B20CF08FFD0028ECDB54
:10214000317873783C440334002D194424F003049F
:1021500000FB01F114BF2046002000F09DFC20444C
:102160000DB90028D9DBB2780346B2B1F17CF3781F
:1021700011441944FF29D0DC0330002D20F0030462
:1021800014BF20460020F289C9B200F0F5FC031EFE
:10219000C3DB23440DB9002BBFDB317C81B1B278A6
:1021A00072B10733002D23F0070414BF204600202E
:1021B00004F0B0F9031EB0DB23440DB9002BACDBF7
:1021C000002D0CBF18460020A9E700BF50130020C7
:1021D0001FB572B6184BDD6AE5B9BFF34F8F1749CB
:1021E000174BCA6802F4E0621343CB60BFF34F8F12
:1021F00000BFFDE7B2FBF6F2DCB20133002AF9D1F1
:1022000004F110036B4403F80C2C0A2234B901A822
:10221000A847E2E7024600230A26EDE7631E04AE64
:10222000DCB256FA83F3B0FBF2F602FB1600303054
:1022300003F80C0C3046E9E75013002000ED00E0F5
:102240000400FA0507B50C4BDA7A8DF801209A7A6A
:102250008DF8002068461A89DB88ADF80420ADF8B7
:10226000023002F0CBFB18B1E8219C20FFF7B0FF51
:1022700003B05DF804FB00BF5013002038B50546DD
:1022800068B30AF013FF10B94FF0FF3038BD07F004
:1022900027FDB0F5FA7FF7D8134C1448E562002506
:1022A00000F0E8F92A222946204684F830500BF045
:1022B00091FA01236370A3701B23E380238140F212
:1022C000032363811F23E38108232374EFF3108426
:1022D00072B600F027FD2CB962B62046D6E76FF043
:1022E0001500D3E72846D1E750130020452201000E
:1022F00010B5002842D1244C94F83030032B3AD04A
:1023000059B1002A3DD00239052937D8DFE801F05C
:10231000031428362B2E137863700020FFF7F0FE8D
:102320000028B7BF0123022384F830306FF00B0080
:10233000A8BF84F8303010BD137913B3537903B3B9
:102340001188FB291DD81A2953881AD91B3BE02B69
:1023500017D81368C4F806300C4B92889A80DCE7D3
:102360001378A370D9E71388E381D6E71388FF2B8E
:1023700007D82374D1E74FF0FF30DCE76FF02C0073
:10238000D9E76FF01500D6E7501300205613002050
:10239000F8B50D46064630B329B311F0070422D133
:1023A000124F97F83030012B02D16FF00B00F8BDBF
:1023B000032B02D14FF0FF30F9E700F09DF8002821
:1023C000F8D02846FFF79CFE0028EEDB0FF021F93D
:1023D0003046214602F0A6FBFFF734FF032387F8BF
:1023E00030302046E3E76FF01500E0E7501300209F
:1023F00010B5074C94F83030032B03D102F0AAFB40
:1024000003F084FB0CF01FFD002084F8300010BDA9
:102410005013002050B1074B03F1140253F8041B72
:1024200040F8041B9342F9D1002070476FF015006B
:10243000704700BF8415060010B5074B93F8304075
:102440003CB902F039FB0120044900F091F9204623
:1024500010BD4FF0FF30FBE750130020DD200100DE
:1024600010B5074B93F830403CB902F039FB2046D9
:10247000044900F07DF9204610BD4FF0FF30FBE726
:1024800050130020B920010010B5054B93F83040DF
:102490001CB902F0DDFA204610BD4FF0FF30FBE71B
:1024A0005013002010B5054B93F830401CB90DF0C7
:1024B000DAFD204610BD4FF0FF30FBE7501300203F
:1024C00010B5054B93F830401CB90DF0CFFD2046F8
:1024D00010BD4FF0FF30FBE750130020024B0268A5
:1024E0001A600020704700BF84130020014B1B6856
:1024F000184700BF84130020024B1868003818BF2B
:1025000001207047841300202DE9F743264E04462E
:10251000071D2548376003F011FB0228054607D147
:10252000214920460BF035FF284603B0BDE8F08373
:102530000428F9D13378072B18D13E2000F04AF84F
:1025400078B9F378327901A943EA02236846ADF8F5
:1025500000300CF061F90028DBD053210820FFF790
:1025600037FE052000F076F80028EAD031462046F4
:102570000BF03EFFB0F5817F01D37221EEE700281A
:10258000C7D094F8008094F80290404600F022F8FA
:102590000028BED0B8F13E0FC6D1484600F05AF828
:1025A0000028C1D1B5E700BF88130020074B4FF0CA
:1025B000FF3141F6FF72C3E9001205490022C1E96B
:1025C00000221F21C3E90212704700BF0000002053
:1025D000CC1300203F280CD801380B4BC0F342121B
:1025E00000F01F0053F8223023FA00F000F0010041
:1025F0007047FF2806D04038C0F34212034B00F06A
:102600001F00EFE70120704700000020CC130020DE
:102610000146074B006849681A4603C240F48C2201
:102620001A6041F0107242F4FF625A60704700BFB6
:10263000000000200246024B0068516803C3704747
:10264000CC1300200246024B0068516803C3704758
:10265000080000200138064BC0F3421203EB82034E
:1026600000F01F009B6823FA00F000F001007047A3
:1026700000000020014B1860704700BFD4130020F9
:1026800010B5FFF793FF0DF0B8F8034B1B68044635
:1026900003B19847204610BDD41300200B88028850
:1026A000F0B5C3F30E049EB204F11803C57CC35AFF
:1026B00002352A442B4497B213FA82F3013B428835
:1026C000B3FBF7F313FB07439BB29A42044A93BF51
:1026D00022EA0603324013439BB20B80F0BD00BFD9
:1026E0000080FFFF4A1E062A08B50346084604D8A4
:1026F0004FF4D1711520FFF76BFD094A914202D9C1
:1027000040F2A311F6E711B903B1196008BD2BB16E
:102710001B680022C3E901211A1D1A600430F5E785
:10272000FAFFFF7F10B5114B00EB41041A78638963
:10273000B3FBF2F303FB0223013A1A44B2F5706FC4
:10274000027928BF00231A448378B2FBF3F01944BE
:1027500003FB1020091AB1FBF3F003FB1013134421
:102760006FEA43436FEA5343638110BDD8130020DF
:10277000024B03EB80035960704700BFD813002061
:102780002DE9F04F10F0070A85B0054604D040F25D
:1027900061111720FFF71CFD554F07F10C06B146DC
:1027A0000446B0464FF0010B57F8043B8DF80BA0E0
:1027B0003BB101A898479DF80A30082B01D9E821C0
:1027C000E7E79DF80B1081BB05B13160B94506F113
:1027D0000406E9D12DB3DFF81CE100238EF80030A8
:1027E0001E46022258F82200013A60B190F804A077
:1027F0008178BAF1FF0F66D14FF000078E42077162
:102800003CBFCEB20123511CECD10BB18EF800605D
:10281000022640F6FF6A58F82670002F65D1013E67
:10282000F9D2601B05B0BDE8F08F9DF80AC0BCF17D
:10283000020FE64601F1050238BF4FF0020E0EF11D
:10284000FF3004EB42040444CEF100002040BDF808
:1028500008406444013CCCF1000C04EA0C04B4F5DB
:10286000803F4FEA420301D3F82192E775B1C31AC2
:10287000336099701C8083F803B09DF80C201A71A6
:10288000019A1A814FEA124CA3F806C004FB010416
:102890009CE758F82C90B9F1000F06D099F804B0D5
:1028A000D34504BF99F802904F440CF1FF3CBCF1B2
:1028B000000FEEDA3944FF29A0D90BB18EF8006081
:1028C00040F2271165E794460027F0E707EB410344
:1028D0003846A3F80AA0FFF725FF09F10109BB78E4
:1028E0005FFA89F18B42F1D899E74FF00009F6E7DA
:1028F000DC130020D8130020F8B54FF6FF730380D7
:10290000184B03EB810305461869B8B18678037943
:10291000B3FBF6F206FB1233DBB219460A1D00EBDD
:102920004202B2F902705488002F09DB0131B1FB79
:10293000F6F206FB1211C9B28B42EFD10020F8BDAE
:10294000FF29FBD0C4F30E03C4782B8024B94FF4C5
:10295000D5711720FFF73CFC5380BDE8F8400CF020
:102960005BB900BFD81300201D4B03EB810370B58A
:102970001C69054644B3030404D54FF4DC711720E9
:10298000FFF726FC014620460CF028F9FF280146F7
:1029900004D02046BDE870400CF03EB9A078B5FBED
:1029A000F0F300FB1353DBB219460A1D04EB420699
:1029B000B6F90260002E09DB0131B1FBF0F200FB39
:1029C0001211C9B28B42F0D1002070BDFF29FBD09B
:1029D0008B4204EB42021CBF0023E3705580D8E712
:1029E000D8130020094B03EB810310B51C69014685
:1029F00020460CF0F3F8FF28014604D02046BDE83D
:102A000010400CF009B9002010BD00BFD813002001
:102A1000F8B5104B03EB810307461C6901462046BD
:102A20000CF0DCF8FF28054611D0E688238953EA2C
:102A3000064606D0014620460CF0EEF80146384620
:102A4000B04720462946FFF76DFE0020F8BD05205F
:102A5000FCE700BFD813002038B50E4B827903EB9A
:102A600082030446186908B9052038BD8278E179E7
:102A70009142F9D24B1CE37100EB41035D89B3F93C
:102A80000A30002BF3DBA5800CF0C6F82060002094
:102A9000EBE700BFD813002070B5044610F0030028
:102AA0000E4603D04E211820FFF792FBFFF71AFEC7
:102AB000054624B1034831460460FFF713FE28465B
:102AC00070BD00BFF41300202DE9F14FDFF870B0A6
:102AD0009DF828A09DF82C901E46DBF80030074694
:102AE0000D4690461BB960211820FFF771FB524636
:102AF000092140460BF0F4FE4A4684B209213046D3
:102B00000BF0EEFE14FA80F1DBF800000CF03BF85D
:102B1000386018B9286001B0BDE8F08F04442C601B
:102B200038685346414609220BF09EFE28684B4602
:102B30000922314601B0BDE8F04F0BF095BE00BF51
:102B4000F413002070B50E4604460BF0DCFE05467B
:102B500030460BF0D8FE044B2A1821461868BDE811
:102B600070400CF034B800BFF4130020014B18681B
:102B70000BF0FDBFF41300201F2AF8B504461346DE
:102B80000ED89200033222F00303B3F5803F2DD21A
:102B9000184DACB1A00710D05F210920FFF718FB3A
:102BA000FF2B4FEA420204D9FF339A42A8BF1A46CC
:102BB000E8E77C2AB8BF7C22E4E729706C602B81AF
:102BC00022F0030201EB81031204D80001276B6895
:102BD000120C0025EEB28E4200D3F8BD14B12618B7
:102BE0001F705E60104401352833F3E74FF0FF306B
:102BF000F3E700BFF813002038B5144A147853687F
:102C00000021C8B2844203D8AB210920FFF7E0FAC3
:102C10001846013105782833002DF2D0002181704B
:102C200001241289447044688161C161920800F1F5
:102C30002001051D21F8022B994245F8044B14444C
:102C4000F8D100234361037038BD00BFF8130020A2
:102C50002DE9F8434B7880460C4602F0040602F05A
:102C6000FB07D3B1DFB12E4BD4F804901D89B7BB5D
:102C700001236370AD08A761E76104F120034A46B0
:102C8000211D04F1280023F8025B984241F8042B2F
:102C90002A44F8D10023636101E0002FE3D0FF2331
:102CA000A370002E18BF0226A3191B7D032B03D18E
:102CB000022F1CBF0136F6B2A31901221A7506F1C4
:102CC0000C0204EB8606002324F812307268A3700D
:102CD000C8F80020A8F804304046BDE8F883002179
:102CE00014226170A0180AF075FDB5F5FF7F0FD2B0
:102CF0006B08ED1AADB209EB0502C4F80490258407
:102D0000A2606384C4F80C90A5842261E384C6E7C2
:102D1000B5F5EE6F4FF0FF03EBD940F27265EAE7CD
:102D2000F8130020134B012200214FF0FF309A606E
:102D3000C3F80012C3F80803C3F80015C3F804254C
:102D40009A60C3F80803C3F80015C3F804250A49BC
:102D50000A4A03F580334FF40040C3F80825C1F850
:102D60008000BFF34F8FBFF36F8FC1F88001C3F8AE
:102D70000825704700F0004000E100E00000F63F49
:102D80000A46192302F8033B0448C368C1F803301C
:102D90000369536043699360704700BF04140020C7
:102DA000024B5A8C02435A845B6A18470414002071
:102DB000014B00215B6A18470414002010B5154C24
:102DC00005F0C4FF05F044FB208DFFF7F1FF237EE3
:102DD00063B12246104952F80C3BE36063685360CC
:102DE00004F11900A36893600DF04FFD0B4B228D89
:102DF00093E8030003F018FC236B188803F03EFBF4
:102E0000A36B94F8341094F835009847002384F8A5
:102E10003C3010BD04140020812D0100301400202E
:102E2000034B93F83C300BB1FFF7C8BF704700BFAE
:102E30000414002070B51E4C256B636C236495F858
:102E40008C30064694F848000BB10430C0B295F8B7
:102E500069102EB9FF2803D195F868308B4201D054
:102E600005F000FE95F88C30E3B1E06C06F00EF84A
:102E7000012384F86830D5F8E8302366E16CD5F892
:102E8000EC30206C636605F099FA16B9304606F00E
:102E900045F895F86810002006F08AF8022384F8B7
:102EA0003C3070BD206C05F0F1FF05F0D1FAECE785
:102EB0000414002008B5094B93F83C20022A04D0E2
:102EC00040F231212720FFF783F9DA7A42F001023C
:102ED000DA72BDE80840FFF771BF00BF041400209C
:102EE000032810B50A4B044605D15A6FD278022A3E
:102EF00001D1002010BD986F0BF085FD0028F9D19D
:102F0000032CF6D002F002F880F00100C0B2F1E725
:102F1000041400202DE9F043464C94F83C30012B7A
:102F200085B006460F465FFA83F904D040F2DC41D3
:102F30002720FFF74DF9256B616F02A80BF085FF85
:102F400095F87C309DF808803BB1002185F87C1015
:102F50000420FFF725FF85F87E90B8F1030F63D1B9
:102F600095F882301BB9616F0220FFF719FF032328
:102F700000E0012385F8823095F88C30C3B1236BD3
:102F8000D5F8E82093F8690022664FF00108D5F8DB
:102F9000EC20626684F868800BF068FF94F8489033
:102FA000254900220346009240464A4605F0C0F9F2
:102FB00026B105B0BDE8F043FFF700BF002FF8D001
:102FC000E36F304698470028F3D094F83430002B54
:102FD000EFD194F88030DD06C3F3001005D5636FA0
:102FE000187800F00300FFF77BFF636CD4F88420AF
:102FF0001B78C3F300132AB9B4F8882013B1B2FACE
:1030000082F35B09628C910709D5636FDB78022B31
:10301000CFD1002005B0BDE8F043FFF70BBF002A79
:10302000C7D10343F5D1C4E79DF80C30002BA0D0E5
:1030300002239FE7041400205414002010B5094C0B
:10304000D4F8843023B940F2CE412720FFF7C0F8EE
:10305000B4F88820216C033218460AF027FC20645B
:1030600010BD00BF0414002010B5064B93F83C209F
:1030700002F0FF0422B91C7603F0CEFA204610BD00
:103080000C24FBE7041400200A4B0B4A70B50646DB
:103090000D461A60FFF7E8FF18B1ED212720FFF772
:1030A00097F8064C012104F18A000DF05EFB66647E
:1030B000E56470BD48000020C838010004140020F9
:1030C000024B012283F8AC20704700BF041400209B
:1030D000F0B57D4C85B002AE86E8030094F83C1054
:1030E0000A9F01F0FF0511B90AB103B127B94FF4E6
:1030F000BE712720FFF76CF896E8030004F12C0C52
:103100008CE8030084F8AC5084F8345084F8AD5057
:1031100084F8355084F8AE5084F8AF506584258526
:10312000256BE3676262A76305F0E0FC05F090F9A8
:1031300095F9700005F068FD686A05F099FEE86988
:1031400005F068FD95F89C0005F06EFD236B93F883
:103150009F310BB105F0B8FC95F869209D21012045
:1031600005F0E0FD594B186805F088FE2B69A36750
:10317000574A6B69C4F8B03005F5807105F1F0036A
:1031800053F8040B42F8040B8B42F9D1D5F8002117
:10319000C4F869205A684F4B5A60236B93F8862015
:1031A000A2F12501012993F868100E4603D993F87E
:1031B000870025285FD193F846322BB1012E03D02A
:1031C000012B14BF0226012605F13007314638468F
:1031D0000DF0EBFB31460DF033F9AB8F95F869102C
:1031E000834228BF0346384684F8B4300DF0C6FB4E
:1031F00095F8691095F88C70B5F84460042908BFFB
:1032000003210DF01DF90FB9043080B2B04228BF80
:10321000304695F88C30C6B284F8B56084F84860C2
:10322000A3B1D5F8E83095F8690023660127D5F8F1
:10323000EC30636684F868700BF018FE00220346D9
:10324000009223493246384605F072F80120FFF714
:10325000F1FD002323606360A360B5F880306380D4
:103260002B88238095F89C302371EB6E0BB10122E3
:103270001A6005B0F0BD203A012A0CD8232893F833
:1032800026210AD012F0010319D192079CD50129F9
:1032900018BF022698E723280DD193F8262193F82A
:1032A0006130134013F001020BD19B078CD501292B
:1032B00008BF0E46ECE7032908BF042684E71E4634
:1032C00082E7164680E700BF041400204800002073
:1032D000541400206D14002008B50C4B93F83C20CA
:1032E0001AB9BDE80840FFF769BD93F83C20022AEF
:1032F00004D040F213212720FEF76AFF1B6BD3F89E
:10330000B801BDE8084005F0DBBD00BF0414002093
:10331000014B1876704700BF04140020014B93F84E
:10332000AE00704704140020024B188DC0F3C0207B
:10333000704700BF04140020014B93F8AD007047A4
:10334000041400202DE9FF41324C03460E4602A82A
:10335000216C256B0BF079FD13F001089DF80C70C2
:1033600003F002002BD0002384F8B63090B1FFF7B1
:1033700065FE0DF1020201A9D4F8B0000BF0EDFBDF
:1033800001980BF0D0FB012230603946D4F8B00030
:103390000BF078FBB8F1000F0ED0D5E93A320133CB
:1033A00042F10002C5E93A3295F88430012B0CBF96
:1033B0000023012385F8843004B0BDE8F08194F83F
:1033C000B630032B20D801A252F823F06D33010050
:1033D000DD330100F7330100F73301000028EBD0A3
:1033E000FFF72CFED4F8B0000022394604B0BDE847
:1033F000F0410BF047BB0028DED0D4F8B00004B099
:10340000BDE8F0410BF0A5BB40F27A412720FEF762
:10341000DFFE00BF041400202DE9F04FA84C00236C
:1034200089B0CDE9043394F83C30276B022B8046F9
:103430008A4604D040F25F512720FEF7C9FE238D53
:10344000590606D44020FFF7B3FC238D43F0400318
:103450002385216C06A80BF0F8FC97F88C30B8F1A6
:10346000000F00F0C9809DF819B09DF81C507BB189
:1034700005F006F860B95DB197F884305B4507D177
:10348000012384F83530FFF799FC09B0BDE8F08FCF
:10349000A9B2A4F88810F1B1D4F8B0000BF0D4FAB6
:1034A000C4F88400238D9DF81A2043F4007323850B
:1034B00097F883309A4277D0266B96F88230002BAB
:1034C0003ED0022B11D1A06F04A90BF066FA28B9E7
:1034D00040F21441B0E7C4F88410E3E7D6E938328B
:1034E000013342F10002C6E9383296F87E300021FD
:1034F00086F8821023B186F87E101020FFF750FC6A
:1035000096F87D30A3B14FF0000986F87D9001F068
:10351000E7FC10B940F22B418EE749460820FFF73F
:103520003FFCD6E93832013342F10002C6E93832B5
:1035300096F88330012B0CBF0023012386F88330DB
:10354000238D43F4006323854FF0000997F88430FE
:103550005B4527D19DF81830266B022B26D88BB3FC
:1035600085B3238D96F88C6043F48053238505F052
:103570002FFA042894F8B53006D1002E14BF1B2270
:103580001F22934228BF1346AB422BD3D4F884505A
:10359000002D3FD094F8AC30002B00F08F8020201D
:1035A000FFF706FC002535E0C146CFE7032B09D124
:1035B000238D216C012043F4805386F87C00238501
:1035C000FFF7EEFB96F88430013B18BF012386F825
:1035D0008430FDB1D6E93A32013342F10002C6E946
:1035E0003A32DFE794F83430012043F0100384F8D6
:1035F000343006F0C9FED5E70BB104F07DFF94F836
:10360000AD30013384F8AD30238D002543F4806361
:103610002385A94697F88B309BB1D7F8E03097F80F
:10362000680023660026D7F8E430636684F8686093
:103630000BF01CFC234900960346FB22304604F0A5
:1036400077FEBAF1000F3FD1628C94F8AD301207CB
:1036500003D5626FD278022A36D0012B34D8E36FBB
:103660000120984780B394F834A0BAF1000F2BD111
:103670001DB105A90120FFF765FE266B96F88C2089
:1036800000238DF80D3094F848300AB10433DBB2D2
:10369000FF2B96F8681003D196F869308B4202D060
:1036A000FF2005F0DFF996F88230032B00F2F3805B
:1036B000DFE813F054008400D800E9004546A9E78C
:1036C000041400205414002005F092FC002D00F09A
:1036D000EA8005A90320FFF735FEB9F1000F0DD0F0
:1036E000B4F80720B4F805301343B7F8802013432B
:1036F0001EBFB4F809300133A4F80930B8F1000F47
:1037000000F0D380B4F805300133A4F8053000236D
:1037100084F8AD30684802F09FFE049830B10BF099
:1037200002FA216B0022027202F04CFA059B33B1BF
:10373000216B00221A720C22059802F011FA002D5A
:103740007FF4A1AE238D1B063FF59FAE8020FFF7CF
:103750002FFB238D43F08003238596E694F8B43045
:10376000ADF80E305548A6F8583001F0A9FB50B11D
:10377000616F4FF48070FFF713FB012386F87D30F3
:1037800084F8AF301CE0A06F0DF10D020DF10E01B9
:103790000BF0E0F8606788B196F8C73073B99DF810
:1037A0000D302BB903808370606F01210CF0DDFFB9
:1037B000636FBDF80E205A700123E1E7404B636749
:1037C000616F96F883300878DB0003F0080200F0A0
:1037D000F303134396F88420920002F0040213438B
:1037E00023F010030B7000F00300FFF779FB0028B3
:1037F000606F037818BF4FF0100A4AEA030A80F896
:1038000000A096F88B30002B48D04378002B45D091
:10381000E06C05F03BFB002384F86830D6F8E0301C
:103820002366616FD6F8E430E06C636604F0C6FD91
:1038300096F86910012005F0BBFB626F1188A4F8AF
:10384000801091781F4A012384F8AE30917084F87B
:103850003C30002D3FF441AF05A90220FFF772FD77
:1038600000253AE7B6F85830A06FADF80E300DF1EC
:103870000D020DF10E010BF06DF8606700289BD171
:1038800040F2D121D8E50D4801F01AFB002893D170
:1038900040F2DB21D0E540F2E921CDE505F0F6FA72
:1038A00004F0D6FDC4E7012517E7B4F8073001336B
:1038B000A4F807302EE700BF301400207814002051
:1038C0008E14002084140020B52E0100193401004C
:1038D000152F0100212E01000B2808B504D940F254
:1038E000FB310620FEF774FC014B33F8100008BDD5
:1038F000981506002DE9F04F8BB00446154602934B
:10390000894690F869B00CF0F8FB064694F8A001DF
:10391000FFF7E2FF94F887300393064485F0010334
:10392000B6B2059385BB94F8E431032B2CD1039BED
:103930000D2B29D1B4F844324B4525D1D4F8EC31C4
:10394000C4F8D831A369B4F8BC21C4F8DC31B4F8A8
:1039500032321344C4F8E031204604F009FCD4E9C3
:103960009223A262B4F84622A285D4F850222262A1
:1039700041F64B529342A3618CBF0023012384F88C
:103980007230022384F8E431B4F83072B4F88080E5
:10399000A9EB07073FB204F50073A9EB0808002F55
:1039A00004930FFA88F86EDAD4E986234746C4E90F
:1039B0008A2301230493CC4B1B7803F0FF05002BD3
:1039C00054D006F081F9054600284FD0B4F8D03124
:1039D000012B6DD994F8E431022B69D094F8FA5197
:1039E000002D65D194F8A001FFF776FF94F8E4313B
:1039F00000F5C866012BB6B2D9B24CD194F88A3022
:103A0000D4F828A0032B40D1D4F8DC5155443146DA
:103A1000D4F8DC0106F01CF9D4F8D831C4F8D80188
:103A2000A0EB030AD4F8E0313146284603FB0AFA3A
:103A300006F00EF9D4F8E851C4F8E801451B314608
:103A4000A06906F005F9AA44B4F8BC51D4F8E031F5
:103A50004544ED1BDB432B44D4F8EC51451B05FBDF
:103A600003A50123C4F8EC0184F8FA3194F8E43199
:103A7000DFF874A2032B00F28E81DFE813F01B0045
:103A800016016B003701029B94E728460CF000FDFD
:103A900000EB0A05BBE7A069314606F0D9F8B4F897
:103AA000BC51D4F8EC314544ED1BC31A5D43D8E753
:103AB0000025DBE7012100200CF0EAFC8046A06A2B
:103AC0003146404406F0C4F83146C4F8E801A06924
:103AD00006F0BEF807A9C4F8EC0108A805F090FAB2
:103AE000079B0093D4E98A01DDE9082309F0C4F9B2
:103AF000834620460BF0DEF9D4F83432A66A94F8F7
:103B000069001E4405F0C8FBD4F8E811A6F194073B
:103B10007F1A00F523404FF47A734744A130B0FB7D
:103B2000F3F0A38DA7EB0B0730313F1A03EB4101F4
:103B300094F869000BF0AAF9D4F83432FB1A223059
:103B4000B3F5917FCAF8040058D240F2DE4130202C
:103B5000FEF73EFBA36AD4F8DC013146184406F0B8
:103B600077F83146C4F8E801A06906F071F8C4F8A6
:103B7000EC0120460BF09EF9B4F8BC31A66AD4F8EB
:103B8000DC71002B40F08D80029B002B00F08980BF
:103B900094F8690005F080FB3E44D4F8E871943E47
:103BA000D4E98623F61BD4F8207280463E4494F86C
:103BB0006900B61A05F070FB4FF47A7300F2E7372C
:103BC00008F52340B7FBF3F73744A130B0FBF3F01F
:103BD000D4F8E811D4F8D831D4F8E021303102FB20
:103BE0000311A38D3F1A03EB410194F869000BF018
:103BF0004DF90123CAF8040084F8E431A6696FF492
:103C0000F4731E44D4F8EC31F61ADAF804309E420C
:103C100028BF1E46D4E98A327F1BDF1942F1000219
:103C20004FF00008C4E98472C4F8B86184F80082D7
:103C300004F130000CF0A0FEB4F8A811A4F8309202
:103C4000D4E98423A1EB09090FFA89F9C145C4E934
:103C50008A23C8BF022384F80882C8BF84F80832C8
:103C6000039B06440D2BC4F80462029B00F096806F
:103C7000002B40F0948094F8E431002B00F0AD80EC
:103C8000A169D4F8EC3104F50070C91A0CF0A7FB57
:103C900080B2002800F0A180149B03B1188001209D
:103CA000ABE0D4F8E801374492E7D4F8EC21A369FB
:103CB000D4F8E001D4F8D8119B1A5F43B4F8BC31B2
:103CC0009844C3439844D4F8E831303301FB0033BF
:103CD000A18D94F8690002FB083301EB43010BF05E
